:020000040000fa
:080000001c02040000000000d6
:020000040000fa
:10000800b0020000b0020000b0020000b002000020
:10001800b0020000b0020000b0020000b002000010
:10002800b0020000b0020000b0020000b002000000
:100038002a350000b0020000b0020000021e0000d5
:10004800b0020000b0020000b0020000b0020000e0
:10005800fa1d0000b0020000b0020000b00200006b
:10006800b0020000b0020000b0020000b0020000c0
:10007800b0020000b0020000b0020000b0020000b0
:1000880032350000b0020000b0020000b0020000eb
:10009800b0020000b0020000b0020000b002000090
:1000a800b0020000b0020000b0020000d21e000042
:1000b800b0020000b0020000b0020000b002000070
:1000c800b0020000b0020000b0020000b002000060
:1000d800b0020000b0020000b0020000581e00008c
:1000e800b0020000b0020000b0020000b002000040
:1000f800b0020000b0020000b0020000b002000030
:10010800b0020000b0020000b0020000b00200001f
:10011800b0020000b0020000b0020000b00200000f
:10012800b0020000b0020000b0020000b0020000ff
:10013800b0020000b0020000b0020000b0020000ef
:10014800b0020000b0020000b0020000b0020000df
:10015800b0020000b0020000b0020000b0020000cf
:10016800b0020000b0020000b0020000b0020000bf
:10017800b0020000b0020000b0020000b0020000af
:10018800b0020000b0020000b0020000b00200009f
:10019800b0020000b0020000b0020000b00200008f
:1001a800b0020000b0020000b0020000b00200007f
:1001b800b0020000b0020000b0020000b00200006f
:1001c800b0020000b0020000b0020000b00200005f
:1001d800b0020000b0020000b0020000b00200004f
:1001e800b0020000b0020000b0020000b00200003f
:0801f800b0020000b00200009b
:020000040000fa
:10020800b0020000b0020000b0020000b00200001e
:10021800b0020000b0020000b0020000b00200000e
:10022800b0020000b0020000b0020000b0020000fe
:100238002a350000b0020000b0020000021e0000d3
:10024800b0020000b0020000b0020000b0020000de
:10025800fa1d0000b0020000b0020000b002000069
:10026800b0020000b0020000b0020000b0020000be
:10027800b0020000b0020000b0020000b0020000ae
:1002880032350000b0020000b0020000b0020000e9
:10029800b0020000b0020000b0020000b00200008e
:1002a800b0020000b0020000b0020000d21e000040
:1002b800b0020000b0020000b0020000b00200006e
:1002c800b0020000b0020000b0020000b00200005e
:1002d800b0020000b0020000b0020000581e00008a
:1002e800b0020000b0020000b0020000b00200003e
:1002f800b0020000b0020000b0020000b00200002e
:10030800b0020000b0020000b0020000b00200001d
:10031800b0020000b0020000b0020000b00200000d
:10032800b0020000b0020000b0020000b0020000fd
:10033800b0020000b0020000b0020000b0020000ed
:10034800b0020000b0020000b0020000b0020000dd
:10035800b0020000b0020000b0020000b0020000cd
:10036800b0020000b0020000b0020000b0020000bd
:10037800b0020000b0020000b0020000b0020000ad
:10038800b0020000b0020000b0020000b00200009d
:10039800b0020000b0020000b0020000b00200008d
:1003a800b0020000b0020000b0020000b00200007d
:1003b800b0020000b0020000b0020000b00200006d
:1003c800b0020000b0020000b0020000b00200005d
:1003d800b0020000b0020000b0020000b00200004d
:1003e800b0020000b0020000b0020000b00200003d
:0803f800b0020000b002000099
:020000040000fa
:10040000f03fb1000180b10006003500ee030900a5
:1004100000000000403fb1000180b100fbff3d0043
:100420001000b000203fb00002003500008009003d
:100430000000000000000600cf0521000eff220092
:100440000e0188000000000000012000200288004a
:100450000c00070020862200010020001100070088
:10046000000020000000e000020032000000020056
:1004700000000000e41c0200000000000040da0060
:100480000000fe004440a900208620000000e0009b
:100490000300320000002000a00188004440a800b2
:1004a0000000060091018800800078000000eb0049
:1004b00015003700e280400032a0b4009101ba007c
:1004c000e280400032a0b4009102ba00e280400015
:1004d00032a0b4000002eb00472bde00f507b200ab
:1004e000602ce10004003a000059eb008301e900b0
:1004f000fdff3e00040037006128e10001003200ea
:100500000082eb00040007001101ba000200e000c5
:10051000e8ff3a00000006003159ba008301e90003
:100520000c0032002159ba008301e90008003200b2
:100530000400e00003003a00e280400032a0b40072
:10054000f5ff370011d9ba008301e900faff3a003c
:100550008100e800e180400032a0b4000000060005
:100560000040da000000fe00821f7800849fbe0079
:100570008a1f78004400f800040f2000240288003d
:10058000010578000601c3000080e9000080080032
:10059000020000000505f0000401f1003200cd006a
:1005a0000505f0001001f1003200cd004400f90013
:1005b0004f0578004f02be004f0078000000060093
:1005c000b10278000009eb000002e90007003400e6
:1005d000b10178000328e10002003c0083027800aa
:1005e000040950000402e900f9ff3c00050078000e
:1005f00000000600889fbe008a9fbe008c9fbe0040
:100600008e1f78004400f800070f200027028800a2
:100610003400f800811f78000f07780007f02f00e2
:100620000338e10004003200270280004700b300d5
:1006300027028800a301880019002000804cdd00fb
:100640001300200002047800800678008904d1009d
:10065000424edd00010578000302e9000480080035
:10066000170000008a0546004218dd000902e90073
:100670000480080010000000000000004620c300b5
:100680003b025200df35c100080440001381c20064
:10069000ab825200264dc5003e85c400bb00cd0094
:1006a000bb80cd003a00ca002a80ca000700c900fa
:1006b0000580c900ba00cd00ba80cd000a05460009
:1006c000020478008301d0008d06e900dfff3c00c2
:1006d0008e0778004f0078003400f9004400f900dc
:1006e0004f0778004f06be004f05be004f04be0006
:1006f000000006004600f8005000f800022020002c
:100700003202880002002800130020008019dd005a
:1007100002817100820288000100780001017800e6
:1007200026002000470020008301e9000380080024
:10073000070000000110e100040034001102be00b7
:1007400092087800e2307b000489be008780400078
:10075000121978005000f9004600f9000000060068
:1007600003f0a200889fbe008a9fbe008c1f780005
:10077000cb000700d20033006450e1004f0032008c
:100780006420e1005200320003826c0007003b004d
:100790000905d0000306d000820f54000c065d004e
:1007a0000200390002003200890178000306780057
:1007b0008582550004003d000003fd008103fd001b
:1007c0008502ea008b854200840f720002003b0024
:1007d00060001000e08018006011b8000005eb0018
:1007e0007a28e1000a00390006007800c75ddd00c4
:1007f000f707b200878075002d00370082817100f5
:100800000a017800610560008180d1000080d3007a
:100810008502e900f9ff3b00060440008784480098
:1008200002003b0060041400e0841c000988a3005f
:10083000070032008a8171008281710061016400c9
:100840008904d1000884d3008b05e8001700370025
:100850000978a30013003a000b00e00013003400f5
:100860008b05e9000804440089844c000a447400a4
:100870000978a3000d003a000b00e00007003400e7
:100880008b05e9000804440089844c0001003a000b
:100890000b0020000978a300f7ff32000001eb00f5
:1008a00002003700828171000a01780041000700d0
:1008b0000cf0a70001f0a0008a0037006420e100de
:1008c00002003a00838f6c008a0033000801be00ea
:1008d0000200be0083003700839f68000100e00033
:1008e00002003d0060001000e08018000300e000fe
:1008f00002003d0060011100e0811900c300070003
:100900004f00e00002003b0060001000e080180093
:100910000000060014002000cf003700f4ff2f0075
:10092000cd0037000001be00480007000470a7009a
:1009300003f0a1006509b100160032000d0035007a
:100940006828e10006003500f0ff2f00f1ff2700c6
:100950000300e00013003b00010028000000050038
:1009600000004000818048008502e900fcff3a0059
:1009700008003700f88f420002003c008000eb00c6
:10098000000005008100d1000080d3008502e8004e
:10099000fcff3a000300e00002003b006000100092
:1009a000e0801800000006004f89de008201780018
:1009b000c400370081002000618055000b003d001d
:1009c0000b00200061fe2f000100e1001d0034003b
:1009d00082817100610164008904d1000884d30020
:1009e0000000e800faff3a00710020006100640096
:1009f000030070000200600009003200610444003e
:100a0000e0844c000988a500050032008b05e80051
:100a10006808e10002003a008904d1000884d3008c
:100a2000f20f20000258e10005003d00c75ddd0027
:100a3000f907b20089807500080078000000060000
:100a40000bf827008b00780000000500c70ade00c5
:100a5000f107b200f50fb20008003200e1cf42000a
:100a6000020032000170a00024000500810f700018
:100a7000010032000408050044000500810f7000e9
:100a800002003a00140005008502e9000000400061
:100a900081c04800fcff3b000170a000240005005d
:100aa0000004be00e9ff07000003be000405be000d
:100ab0000200be00e5ff0700844f7500000006003d
:100ac0000200be006450e100050036006420e10031
:100ad000020036000968a30001003a000800be00c9
:100ae0000160a0004f0678004f05be004f04be0015
:100af00000000600f0ff2f00f1ff2700f9ff37008c
:100b0000811f78000100e00002003d00600010003d
:100b1000e08018000300e00002003d0060011100c9
:100b2000e0811900490007004f00e00002003b008f
:100b300060001000e080180000000600889fbe00e2
:100b40008a9fbe008c1f7800d5ff0700dcff3300b2
:100b500003866c006450e100240032006420e10050
:100b6000270032006150e100220032006120e100e4
:100b7000210032008b854200eb07b1000134b80040
:100b8000003ab8000804420089844a00013ab800db
:100b90000030b8008880400009014a00040033009a
:100ba0000000400081804800020149008b05e900f7
:100bb000c909dd008301700001003200130020002c
:100bc000c814de004814dd004709de001200b20040
:100bd000c808de000884700076ff070001f0a1005d
:100be0000cf0a70001f0a000beff37006120e1007b
:100bf000c0ff32000801be000200be00f7ff370050
:100c00006150e100fcff3a00baff37006022b800f3
:100c1000060220000000d0008180d2000482d200b1
:100c20008582d2000000a0000202520083825a0096
:100c3000030031000202420083824a000000a1004a
:100c40000603e900f3ff3a0000000600efff07008b
:100c50000400be0000000600889fbe008a9fbe0000
:100c6000841f78008eff07004f00780011003300ca
:100c7000f0ff2f00838f6c0006003b000405650029
:100c80000a00a7000800370009f0a60010002000a5
:100c900008003700820f5400838f5c000300390086
:100ca0001000200001003e000000200009f0a70015
:100cb0000000ea004f05be004f04be000000e00047
:100cc00000000600881f7800030478000300e0009d
:100cd00007003d0060001000e0801800600119006e
:100ce000e081190002003b0001f02d0003003700f5
:100cf0000400070008f0a70001f0a0004f047800ee
:100d000000000600889fbe008a9fbe00008270001f
:100d10000402710004827100260032000004be004b
:100d20000200be006011b8006b092000950220008f
:100d30000182cf000a0039000541b1000082cf00d6
:100d4000070039000541b1000982cf0004003900d5
:100d50000541b1000882cf00010039000541b10012
:100d600005425200120032000a003b0082817100ed
:100d7000610164008100d1000080d3008984d30028
:100d80000884d3008b05e8000442e800f7ff3a002e
:100d9000070037000804440089844c000000480024
:100da000818048008b05e9000442e900f9ff3a0020
:100db00000ff07004f05be004f04be000000060004
:100dc0000002780002003700315a78000201e90081
:100dd000e00f5100fcff3a00000006000c00fa0092
:100de000889fbe0000047800f4ff2700d4bf9f0056
:100df0008004eb0099bf9f0088bf9f00a8bf9f00a1
:100e0000240c2000b4bf9f0078815700cfb097001a
:100e100070805700c40007000fba9700094a780095
:100e20000fba9700080052004f04be000080fa007d
:100e3000000006000800fa00889fbe008a9fbe00de
:100e40000084fb00d4c6b300844f50003400360049
:100e50004b062000110009000b84d80081057800a2
:100e6000720040004300dd00090b240000804400b4
:100e70006022b8000600200007fe23005001be00db
:100e80004000be00df0607000002be000203be00f5
:100e900084bf9f0095bf9f00a6bf9f00b7bf9f0064
:100ea000aa002000110009008a85d800800578007a
:100eb000e9854500c35ddd008b8544003b02be0033
:100ec0002b03be000fb897009fb897002fb997006b
:100ed000bfb99700cb0607000002be000203be00a8
:100ee00084bf9f0095bf9f00a6bf9f00b7bf9f0014
:100ef000110009000a84d800010478004344dd0091
:100f0000888444003902be002903be000fb8970050
:100f10009fb897002fb99700bfb997001d00370001
:100f2000ea4f500013003600aa002000110009000b
:100f30000a84d80001057800690440004344dd00bc
:100f4000090b2400088444006022b8000600200039
:100f500007fe23003800be002801be00a9060700d6
:100f60004355dd008a8444003902be002903be00d7
:100f7000080037004344dd00040b2400080442004d
:100f80006022b8000600200007fe23003800be00e3
:100f90002801be009b0607004f05be004f04be009f
:100fa0000080fa00000006000800fa00889fbe00da
:100fb0008a9fbe00d4c6b300e04f500022003d001f
:100fc0000040ea000004fb00844f50000a00340097
:100fd00044062000110009000404d800a9002000e4
:100fe000110009008900d800e9004000c308dd00b5
:100ff0000a0b240020003700ea4f50000f00340095
:10100000a4002000110009000404d8006900400079
:101010004300dd00040b240000004200430cdd000f
:10102000080242005403be004402be005001be004c
:101030004000be0073060700370037004344dd0060
:10104000040b2400310037000004fb00844f5000e3
:101050002300340044062000110009000404d800d5
:10106000a9002000110009008900d800e900400013
:10107000c308dd000a002400810045003102be00e3
:101080002103be008b0920008a8545003b00be007d
:101090002b01be005b0607000002be000203be007b
:1010a00084bf9f0095bf9f00a6bf9f00b7bf9f0052
:1010b000110009000904d800010478004344dd0050
:1010c000080545003a02be002a03be000fb897008b
:1010d0009fb897002fb99700bfb99700d5ff370089
:1010e000ea4f500007003400a4002000110009005e
:1010f0000404d800690040004300dd00040024001f
:10110000c5ff37004344dd0004002400080442000a
:101110003800be002801be004f05be004f04be00cf
:101120000080fa00000006008f03b000889fbe0018
:101130008a9fbe008c9fbe008e1f7800c0b79f00a4
:10114000e1a79f00b2af9f006000b8006011b80037
:10115000f0a79f0081af9f0092af9f00a3af9f00b9
:101160000006eb00a0033700efa097008100e80025
:10117000e1a79f0054c2b300844f500006003a001c
:10118000810378008002eb0001c3b30000c2b3000a
:10119000b2c2b300070037000000fb00cfb09700d9
:1011a0009d030700e10f40008f0332000c06e800aa
:1011b0008d0337000702780037437800d3c2b300ad
:1011c000834f53000900320005003c00804f53005c
:1011d00008003200824f53000c003a00070037002d
:1011e000814f530009003a00060037000530a00087
:1011f000f0ff37000500a000eeff37000510a0004b
:10120000ecff37000520a000eaff3700e283620010
:10121000010032000500a100e883620001003200f5
:101220000520a1008603fb000703b100e98f5300ee
:1012300010003e00040378000002eb000500780077
:10124000840278006a2ab900b603fb000703b100e4
:1012500084824300060278009603fb000703b10076
:10126000e98f5300f7ff360085b79f0080027800b2
:101270000a0037008003eb0087b79f00a7c2b300c6
:10128000874f530005003a003fa89700c000780040
:10129000b0af9f0081b79f000402e800e6c2b30030
:1012a000944f130015003a0005e0a000644353007a
:1012b000d44f130003003200040378000007eb0052
:1012c000080037003fa9970042077800b2af9f009f
:1012d0000402e800c7c6b3000b0037006a70b9000b
:1012e0000087430006027800b603fb000703b10045
:1012f000e98f5300f9ff3600f6ff370005c0a00064
:101300000007eb00f3ff370034437800e4a79f00a9
:10131000874f530016003200c4c6b300844f5300f9
:1013200009003c0069425200844f53005d003200c6
:1013300063424200844f530013003200e04f5300d9
:101340002e0332007700370054c7b300844f530098
:101350007900320063424200844f53000d00320096
:1013600065425200844f53006e003a000c00370073
:101370007080620006012000010032000600280093
:1013800086827200e0ff3700c67f9f0005a0a000a4
:101390006b003700c67f9f000570a0006800370013
:1013a000c67f9f003fab970046027800b6af9f0014
:1013b00004047800e00f520001003a00687e240027
:1013c000080378000002eb00010037000402e80087
:1013d000e6437a00e0cf5300fcff3a008404780033
:1013e000e00f570003003200890f57000100310061
:1013f0008e0478008006eb008fb39700898f53002e
:1014000001003600898653006887620014003a00a4
:1014100007003700cfb0970000022000fe0207004f
:10142000e10f4000010032000c06e8008d06e900e3
:10143000e08f5600f7ff3a008086eb000800370087
:10144000080278003400fb0004047800cfb0970055
:10145000f1020700e10f4000010032000c06e80035
:10146000090278008404e900e00f5200f4ff3a001a
:10147000e00f5700dc02320007003700cfb09700c2
:1014800000022000e4020700e10f400001003200ea
:101490000c06e8008d06e900e08f5600f7ff3a00e1
:1014a000d10237003fa8970040027800b0af9f00fc
:1014b00004007800cf80de0001017800820178000e
:1014c000d0b79f00e1b79f00f2b79f0083bf9f0096
:1014d0004800de00480add0000007200c07f9f0067
:1014e0007083620009003200e04f500007003200b4
:1014f000e14f400005003200d07f9f002feb9700a6
:10150000e67f9f002900200003003700afeb970023
:10151000d77f9f0019002000d8fb2f000f04440044
:10152000afff3700c67f9f00c8fb2f000f044400a9
:1015300019002000aaff3700c67f9f00050cb300ea
:10154000d5b79f00047020005fb0970004026000d0
:10155000ac013200040021000402600001003200ee
:101560006e002000dfb0970070826000050032003e
:101570003fa897004003be004002be00b0af9f00ee
:10158000060037003fa997004200be00b2af9f009f
:10159000840407000002be000203be00c4af9f0027
:1015a000d5af9f00e6af9f00f7af9f006022b80065
:1015b0006033b8004fa89700dfa897006fa9970085
:1015c000ffa99700c9030700e00f50000c003d0081
:1015d0004fa89700dfa897006fa99700ffa9970071
:1015e00003f0a200c0af9f00d1af9f00e2af9f0009
:1015f000f3af9f00dfb097003100b300d1b79f0079
:101600000002eb0084a79f006022b8006033b8009e
:101610004fa89700dfa897006fa99700ffa9970030
:1016200016040700e00f5000350032004fa8970065
:10163000dfa897006fa99700ffa99700680507002a
:1016400002fc2f000f014100d10407000fa09700fa
:101650000000e9006300b900a400200011000900a7
:101660000400d80080a79f00e00f500002003d005a
:101670000000e90080a79f000fa497000840ea003f
:1016800049fe07004faa9700dfaa97006fab9700ab
:10169000ffab9700db0407000002be000203be00a0
:1016a000f4a79f0085af9f0096af9f00a7af9f0054
:1016b0006022b8000600200007ff23008b0307000c
:1016c000e00f500002003d000804e9000b00370065
:1016d0006022b80006002000470224007fa0970087
:1016e0008fa897001fa99700afa997008403070050
:1016f000e00f5000020035000804e80088a79f00b2
:10170000f80f57000f003c000e407800c9fd07009d
:101710000002be000203be004fa89700dfa897009a
:101720006fa99700ffa99700f30207000002be000f
:101730000203be00c4af9f00d5af9f00e6af9f007d
:10174000f7af9f000fa49700e90f540015003c006d
:101750006022b8006033b8004fa89700dfa8970058
:101760006fa99700ffa99700c4030700e00f50007e
:10177000320032004fa89700dfa897006fa99700aa
:10178000ffa9970026040700e00f5000e08f5800e3
:10179000e00f5900e08f590028003a00e10f540093
:1017a000260034000400200005002e00b6e02200d0
:1017b000170124007fa097008fa897001fa997000a
:1017c000afa9970049030700e00f500002003d0059
:1017d00073045400010037007204540088a79f006e
:1017e0000fc09700f0fd07000002be000203be001c
:1017f000f4a79f0085af9f0096af9f00a7af9f0003
:101800004fa89700dfa897006fa99700ffa997003e
:1018100040030700020407000205be000004be00ea
:101820006000b8006011b800c0af9f00d1af9f004a
:10183000e2af9f00f3af9f00170037004fa897005b
:10184000dfa897006fa99700ffa99700f40307008e
:101850000205be000004be00220407000002be0014
:101860000203be004fa89700dfa897006fa997005a
:10187000ffa99700d80407000002be000203be00c3
:10188000c4af9f00d5af9f00e6af9f00f7af9f00aa
:101890000002eb0084a79f008116240010c0b30053
:1018a000080037003102be003103be000440e100f1
:1018b00005c8e10006d0e10007d8e10003003900c7
:1018c0000040e800f44f5000f6ff3a00c07f9f0050
:1018d0000fa297008fb29700048252000e025200ae
:1018e0000000fb0080065200e00f570001003200ac
:1018f0008d06e9005fb397006302630001003200c8
:101900008d06e900dfb39700648263001d0032009a
:10191000e282630061826300e08f520006003200c1
:10192000b0022000e00f5200010032000080e80009
:10193000cfb0970004003700e00f52000e003200d5
:10194000cfb0970000022000b3010700e10f400074
:10195000090032000c06e80007003700cfb09700fe
:1019600000032000ac010700e10f4000010032003d
:101970000c06e8008d06e900e08f5600f7ff3c00fa
:10198000320037005fb09700680260000a003a003a
:1019900007003700cfb09700000220009e0107002b
:1019a000e10f4000010032000c06e8008d06e9005e
:1019b000e08f5600f7ff3c00dfb09700e282600046
:1019c00061826000e08f520006003200b002200009
:1019d000e00f5200010032000080e800cfb0970015
:1019e00016003700e00f520018003200cfb0970009
:1019f00000022000110037008502fb00c32add0031
:101a000002162400850241005503be004502be00b7
:101a10000800be000a01be0047050700a400200020
:101a2000050020006033b8004a05070004032000c9
:101a300000024200cfb09700040078007601070052
:101a4000e10f4000010032000c06e8004f7a9700d9
:101a50008442e900c57f9f00e04f5200e6ff3a0054
:101a600008003700cfb09700000320006a0107008c
:101a7000e10f4000010032000c06e8000804e90014
:101a800088a79f000fa49700e00f5400f5ff3c00cb
:101a9000f20f57000300340024c1b300c47f9f003d
:101aa00001003700ce7f9f004f7a97008402fb0031
:101ab00005075700e04f520006003200cfb09700f4
:101ac000e002200054010700e10f40000100320055
:101ad0000c06e8004f78970033fd07000002be00b7
:101ae0000203be004fa89700dfa897006fa99700d8
:101af000ffa99700c303070049030700220037002e
:101b00008502fb00c32add00041624008502420082
:101b10003500be002501be0080b79f0091b79f0031
:101b2000a2b79f00b3b79f000203be000002be0031
:101b30000800be000a01be00ff040700a400200048
:101b4000050020006033b8000205070004032000f0
:101b500000024200cfb09700040078002e01070079
:101b6000e10f4000010032000c06e8000fb29700c0
:101b70009fb297002fb39700bfb397000800be0035
:101b80000a01be00f30407000205be000004be0007
:101b90004f7a97008442e900c57f9f00e04f5200d2
:101ba000d7ff3a0007003700cfb0970000032000ae
:101bb00019010700e10f4000010032000c06e800a7
:101bc0000e07e900e00f5700f7ff3a00dfb097007b
:101bd000e882600004013200e08f56000201340008
:101be000cfb09700000220000b010700e10f40007a
:101bf000010032000c06e8008d06e900f8ff3a000b
:101c0000f90037005fb19700e00f510005003d007b
:101c1000bfa997004305be004304be00b3af9f00b9
:101c2000150037005fb39700f00263000c0032002c
:101c30003fa997004200be00b2af9f0090a79f004f
:101c4000a1a79f00b4a79f00c4a79f001fa497004f
:101c5000afa497003fa59700cfa5970006003700d7
:101c60003faa970044047800b4af9f000900200009
:101c70000a0020000b002000e00f570007003a0088
:101c80001e002000e00f5400e08f5c00e00f5d00bc
:101c9000e08f5d00010032000007eb00dfb297002b
:101ca000050cb200c5af9f0004082000848f5200cd
:101cb00010003200040c2000848f520021003a00f2
:101cc0008516240014c0b3003500be003501be00e7
:101cd0000040e10001c8e10002d0e10003d8e100ca
:101ce000170039000442e800f44f5200f6ff3a00b2
:101cf0001300370014c0b3000001200001002000d1
:101d00006011b8000040e10001c8e10002d0e1002c
:101d100003d8e1000a003900460020000000d0008e
:101d20008180d2000281d2008381d2000603e900c3
:101d3000faff3a000442e800f04f5200f1ff3a0087
:101d4000c47f9f00cf7b97000702fb008e0f5200dd
:101d500002003d00ce7f9f0003003700840f570034
:101d600001003d00040778008fb09700e08f50001d
:101d7000050032005fb1970063026100020032008b
:101d80008100e90081b79f0004002400dfb19700c3
:101d900004826100080032000fb297008e0f5200db
:101da000030034000e02520084b79f000200370087
:101db0008002eb0085b79f004f7b97000602fb0077
:101dc0008006eb008fb39700848f5300010034002e
:101dd000848653005fb09700640260001c003200ec
:101de000e202600061026000e08f520006003200f3
:101df000b0022000e00f5200010032000080e80035
:101e0000cfb0970004003700e00f52000600320008
:101e1000cfb09700000220007f000700e10f4000d4
:101e2000010032000c06e800e08f56002800320066
:101e3000cfb097000003200077000700e10f4000bb
:101e4000010032000c06e8008d06e900f6ff3700bd
:101e5000e08f56000b003200dfb097006882600010
:101e600008003a00cfb09700000220006a00070087
:101e7000e10f4000010032000c06e8008d06e90089
:101e8000f8ff3a005fb19700e20261006102610071
:101e9000e08f520006003200b0022000e00f520036
:101ea000010032000080e800cfb097000400370046
:101eb000e00f520006003200cfb097000002200071
:101ec00055000700e10f4000010032000c06e80059
:101ed0000e02e9004323dd000516240085024300bd
:101ee00085b79f004222dd002f0037000e07e90072
:101ef000cfa9970004082000848f51001000320001
:101f0000040c2000848f51001b003a000fb0970092
:101f10003002be002003be000800be000a01be0061
:101f200005040700a4002000050020006033b8006d
:101f30000804070004c3b300044240000d0037004a
:101f40000802be000a03be005fa097000000e9007f
:101f5000050033008703d1000683d3008582d300b8
:101f60000482d300f9ff37006f026200d17e2400a3
:101f700061427a00c47f9f004f7997000200fb0006
:101f8000cfb0970024000700e10f400001003200ad
:101f90000c06e8008fb19700e881510083b79f00dd
:101fa0005fa2970064025200d4a79f00e00f570081
:101fb000ceff3a005fb39700e80263000a003200e8
:101fc000e08f560008003400cfb0970000022000d8
:101fd00011000700e10f4000010032000c06e8008c
:101fe0008d06e900f8ff3a00efa39700174078004c
:101ff000c07f9f00e04f50005bfc3a000c0078006f
:102000004f0778004f06be004f05be004f04be00cc
:102010008f03b10000000600889fbe000104780015
:1020200038029000e20262008084eb003b00320044
:10203000040378000620b2009802900002003a00e3
:10204000e08f520035003a000490a000340498005c
:1020500080047800f90fb200e08f520002003a00cd
:10206000a8029000050c7800ea8f540005003a00a1
:102070000408b20003003a0088007800d000200075
:10208000e5ff070018029000d8029000850f52006b
:102090000b0032000402e8001404980018027800d3
:1020a000094a7800040ce80015c0b300042124009c
:1020b000054a7800ea8f540018003a0005003700fe
:1020c0008800780009407800170007008004780035
:1020d00012003700380290000410b2000f003200e6
:1020e00018019000a80090004800900052000700de
:1020f00018029000840f5000040032003802900053
:102100000403b300340498008084eb000002eb0069
:102110001404980028029000040c7800090078004c
:102120004f04be00000006000200fa00889fbe00b7
:10213000a0ff9f000104780038029000840278001c
:102140000504b200020032000000fb003500370039
:10215000e202620005003a000403b3003404980070
:10216000150498000080eb002e003700d804900082
:10217000e08f540006003a0012002000e68057006d
:10218000480090002c000700190498002300370035
:10219000a8029000e08f520008003a003521240088
:1021a00025049800050c78002500200055049800af
:1021b000150498000430a000340498001801900021
:1021c000a8009000480090001b0007002802900023
:1021d0008082eb0015049800affa9700054a78005a
:1021e000040ce8002ffa9700ea4f52000b003a0067
:1021f000380290000410b20008003200180190006c
:10220000a8009000480090000b0007000002eb00bf
:1022100014049800a8029000050c78002ffa97008b
:102220000400fb004f04be000080fa00000006001e
:1022300000c0da00000006000a00fa00e20f5000b9
:1022400022003e00f43f8200e10f520006003200ff
:10225000872320004623200024232000052320007c
:10226000e08f530004003a0087222000462220001d
:102270002422200005222000000028001500600014
:1022800003003a00800b780007002800958a73004d
:10229000054020009482620001003a0014a0a000d2
:1022a0008202780006003700940378000710b2001d
:1022b000fdff3200b103fb00070b78008502e90047
:1022c000e08f5200f8ff3a00080037003400200089
:1022d000b4bf9f00c0bf9f00d1bf9f00e2bf9f005f
:1022e0006a805700d2ff07006fb99700020078009c
:1022f0000080fa00000006002800fa00889fbe0057
:102300008a9fbe008c9fbe00070678008786690002
:102310000c003b00030478008704780008f0a1005b
:1023200009f0a100840f5000858f5800860f5900d6
:10233000890f5c00030033000cf0a20001003a009a
:102340000cf0a100fe0007006400e1005f00320015
:10235000780147006408e100610032006c01470029
:10236000748557003200be001201be003a04be0060
:102370001a05be001e039000be0a9000850353009c
:1023800006003d000004fd008104fd000205fd0083
:102390008305fd008703ea00050378000df8a3001c
:1023a0000400320060041400e0841c0060051d007d
:1023b000e0851d006022b8007d0320000d38e1009b
:1023c0008006eb000b0039004433dd00f300b2005f
:1023d0008301730039003700848272000d02780097
:1023e000e10664008b85d1000a85d3008984d3007f
:1023f0000884d3008703e900f7ff3b000800400092
:10240000898048000a0149008b81490004003b0093
:1024100060001000e080180060011900e0811900e0
:102420000358a300090032008d827200848272007a
:10243000610260008301d1000281d3008180d3005a
:102440000080d3000603e8001b0037000348a30008
:1024500017003a000600e000170034000603e90008
:102460000d00a300000048008180480002014900df
:10247000838149000348a3000f003a000600e000f2
:10248000090034000603e900000040008180480094
:10249000020149008381490001003a000003eb007a
:1024a0000348a300f5ff32006022b80002003700a5
:1024b00084827200618266007500070003f0a1004b
:1024c0000cf0a70003f0a000b10037006401470042
:1024d0006408e10002003a000df8a300a9003a00e8
:1024e0003200be001201be00a90037008f1fd100cc
:1024f000fa0207008f87e9000000e00000000600f4
:10250000809feb00f50207008f87e9000000e000e4
:10251000000006002800fa00889fbe008a9fbe00c7
:102520008c9fbe0003866b00850007006400e100fd
:10253000440032006408e1004a0032006100e1001a
:10254000460032006108e10049003200ec06470015
:102550006000b8003d02be003d03be00f486570097
:102560006011b8003d04be003d05be007d032000a3
:102570000b0037000000a0008d06e90013003200b8
:102580000402420085824a0006034b0087834b0009
:102590000000400081804800020149008381490019
:1025a0000802520089825a000a035b008b835b0099
:1025b000f0ff3b000802420089824a000a034b00f8
:1025c0008b834b008d06e900edff3a008482720098
:1025d00086827200f707b200878272000100320023
:1025e000150020001e0490003e0b900006035400ce
:1025f000e63fb0000368a300070032000000a70018
:102600000500a0008301d1000281d3008180d300a6
:102610000080d3000603e8008301d1000281d300cb
:102620008180d3000080d3000002eb000482d2003e
:102630001700070003f0a1000cf0a70003f0a000b2
:1026400053003700640247006408e1004d00320087
:102650003400be003401be00f6ff37006108e1001f
:10266000480032006011b8006000b800f1ff370088
:1026700003ff270002002000fbff3700801feb0054
:10268000960207008f87e9000000e00000000600c6
:102690001800200057002000080453000d003d00e2
:1026a0000600200097fc2f000740e1001e003400c8
:1026b00084827200610260008301d1000281d30034
:1026c0008180d3000080d3000804e800f8ff3a00be
:1026d00047002000610460000504740004046400e5
:1026e0000d00320061004000e080480060014900b8
:1026f000e081490003b8a500070032000603e800a6
:102700006538e10004003a008301d1000281d30062
:102710008180d3000080d300f87f20000830e100e2
:1027200003003500080378006000b8006011b800ad
:102730004433dd00f300b2008301730000000600a3
:10274000680447000294be000094be00fc044700e9
:102750008694be008494be0009007800a802070099
:1027600008007800a602070099007800814f7000e9
:102770000b003b000800be00810207004f00b100c3
:1027800003003700f3ff2700f2ff2f006110b900ac
:102790004f06be004f05be004f04be000080fa0089
:1027a0000000060081037800a8f807000001be00c1
:1027b0006000b8000478a30013003a006220e10032
:1027c00015003e000d0039008301d1000281d300c5
:1027d0008180d3008301d1000281d3008180d300a6
:1027e0008301d1000281d3008180d3000538b0007d
:1027f000c42add00f300b2008381720007f0a70055
:1028000003f0a00000000600f3ff2700f2ff2f00f6
:102810006110b900fbff370003ff2700f7ff370007
:102820001400fa00889fbe008a9fbe008c9fbe00e5
:102830000004be000205be00680047000a90be000a
:102840000890be006e0207000070a7000bf0a10008
:102850000bf8a30020003a009e0990000e0990009a
:10286000fe0090006e0090009e0290003443200015
:1028700084825200c6ff32000a003c00b4fc2f00e4
:102880000428e100140034008301d1000281d30048
:102890008180d3000080d3008502e800faff3a006f
:1028a000bbff3700b40020000428e10007003c0013
:1028b00000004000818048000201490083814900f6
:1028c0008502e900faff3a00b1ff37000300280053
:1028d00002002000010037006011b8006000b8005d
:1028e000abff3700889fbe000082700004027100b9
:1028f000048271002400320036432000c50020000d
:102900008383cf000a0039000541b1008283cf00e4
:10291000070039000541b1008183cf000400390070
:102920000541b1008083cf00010039000541b100ad
:1029300085c353006022b800120032000a003b0039
:1029400084827200610260008301d1000281d300a1
:102950008180d3000080d3000603e8008743e800ad
:10296000f7ff3a0007003700000040008180480070
:1029700002014900838149000603e9008743e90019
:10298000f9ff3a0042ff07004f04be0000000600b6
:102990001400fa00889fbe008a9fbe008c9fbe0074
:1029a000040678000004be000205be00680047006f
:1029b0000a90be000890be00110207006200e1000c
:1029c0000800be000a01be00040020000b003a000f
:1029d0001e029000e43fb1006e009000fe009000e7
:1029e0000e0990009e099000f300b20005fe23003e
:1029f000858171000bf0a70003f0a000040e7800a1
:102a000063ff37002800fa00889fbe008a9fbe003f
:102a10008c9fbe0003866b0049ff07000028a300bf
:102a200064003a000128a30067003a000008a300f0
:102a300062003a000108a30065003a001e00900001
:102a4000be08900081064000ed3fb100f4805700c1
:102a5000ee019000111ab8008e099000311bb800e9
:102a60009e099000311cb800511db800f485570034
:102a700046000700fe0190003a0007008b85e80041
:102a80003e0007008e09900040000700ee01900014
:102a9000340007008b85e800380007008e0990009d
:102aa000400007009e0990001b18b80089044000f0
:102ab0000a854800fe019000340007008b85e8007d
:102ac00038000700ee019000300007008e099000ea
:102ad0001b18b800890440000a8548000a98a30022
:102ae00008003a000402420085824a0006034b00b7
:102af00087834b0008044c0089844c000a054d0074
:102b00008d06e90084827200850273004c3add0074
:102b1000850272000100320015002000443ade00f8
:102b20001400b2004538de00cb45dd000b0070001c
:102b3000c540de00cb4ddd008b8070004549de00d6
:102b4000cb55dd000b017100c551de000d0378008f
:102b5000cffe070003f0a1000cf0a70003f0a000d7
:102b60000bff37001b18b8008502400006834800a1
:102b7000e0834b0060044c00070037001b18b800ce
:102b80000603400087834800faff37001b18b8008f
:102b90008703400008844800e0844c0060054d0035
:102ba000000006001b18b800080440008984480093
:102bb000faff37000108a300f2fe3a005800be00f9
:102bc0005801be00e3ff37000008a300edfe3a0005
:102bd00009047800f9ff370007f0a200c6fd3700ae
:102be0001400fa00889fbe008a9fbe008c9fbe0022
:102bf0000005be000206be00680047000c90be0043
:102c00000a90be007e0107006400e1001a00320055
:102c100016003e006100e1001a0032006e049000d0
:102c2000fe0490000e0b90009e0b90006011b80007
:102c30009e0590000b38b100d50120008281710003
:102c4000610164008703d1000683d3008984d30027
:102c50000884d3008502e900f8ff3a0055f7070021
:102c60000df0a70001f0a000c9fe3700f1ff27001a
:102c7000f0ff2f00c6fe370001f8270000002000fb
:102c8000f7ff37006000b800f5ff3700889fbe00ef
:102c90008a9fbe003004be002005be00040444002c
:102ca00085844c0006054d0087854d000898be00c0
:102cb0000a90be000440e10005c8e10006d0e10032
:102cc00007d8e10002003100680040001008e80069
:102cd0004f05be004f04be00000006001000fa00c1
:102ce000889fbe008a9fbe000605be000404be0089
:102cf0003002be002003be00c4b79f00d5b79f00be
:102d0000e6b79f00f7b79f000802520089825a0079
:102d10000a035b008b835b0084bf9f0095bf9f000d
:102d2000a6bf9f00b7bf9f000498be000698be00d4
:102d3000110020004fb29700dfb297006fb39700e9
:102d4000ffb397000820e10009a8e1000ab0e10004
:102d50000bb8e100010039008000eb001088100082
:102d60004f05be004f04be000080fa0000000600c0
:102d70001400fa00889fbe008a9fbe008c9fbe0090
:102d80003f0007000605be000404be000006eb007d
:102d9000ccb79f00bcb79f00acb79f009cb79f000b
:102da0008cb79f000d0420004fb39700bfb297006f
:102db000860343002fb29700e00f530004003d004c
:102dc0003d0007000f004000b0ff07000300370080
:102dd000390007000f004000c0ff0700cfb2970086
:102de00095bf9f00e08f5200090035002b000700bf
:102df00014002000050020006033b80000007200bd
:102e00008180720002017300838173001c0007003f
:102e10000c06e8008d0f5600e3ff3a001fba97003a
:102e2000e00f520005003d000802be000a03be008c
:102e300000fe2f000f00400094ff07004faa9700ec
:102e4000e00f520008003a000fb497009fb49700bb
:102e50002fb59700bfb59700d8b79f00e9b79f007f
:102e6000fab79f008bbf9f000c0007004f06be0003
:102e70004f05be004f04be000080fa0000000600af
:102e8000010007000000060090b79f00a1b79f0057
:102e9000b2b79f00c3b79f00000006000100070003
:102ea000000006001fb09700afb097003fb1970039
:102eb000cfb19700000006004f2bde0087037300a0
:102ec000a7b79f004f23de00858242008502730072
:102ed00095b79f00ffaa97004f2bde000402420027
:102ee0000402730084b79f006faa97004f23de008f
:102ef0008582420085027300f5af9f00e9ff07005d
:102f00004f18de000402420000027200e4af9f008e
:102f1000e4ff0700000040008180480002014900f2
:102f200083814900d8ff07000802be000a03be00e3
:102f300000fe2f0000000600881f78001800200007
:102f4000881f78008aff07008f87e9004f04780008
:102f500000000600801feb0085ff07008f87e90057
:102f600000000600889fbe008a9fbe00e00f500050
:102f7000e08f5800e00f5900e08f59000c003d0031
:102f80006044b8006055b8000000540081805c00c7
:102f900002015d0083815d0018002000150007001c
:102fa00008003d00180007000004eb000500370092
:102fb0000004eb000f00070002003d0012000700b4
:102fc00018002000dcff0700e00f5400060032006c
:102fd0006022b8006033b8000000520081805a00bf
:102fe00002015b0083815b004f05be004f04be0001
:102ff00000000600e00f5200e08f5a00e00f5b0077
:10300000e08f5b00000006006044b8006055b80027
:103010000402540085825c0006035d0087835d0026
:1030200000000600889fbe008a9fbe008c1f7800ab
:10303000e00f5000e08f5800e00f5900e08f59007a
:103040000d003d006044b8006055b8000000540019
:1030500081805c0002015d0083815d001c00200016
:103060000820e10009a8e1000ab0e1000bb8e10086
:103070000d003d00080037000006eb00e00f520095
:10308000e08f5a00e00f5b00e08f5b0006003d0020
:103090006044b8006055b8000402540085825c00aa
:1030a00006035d0087835d00aaff0700e00f56005e
:1030b000060032006022b8006033b8000000520001
:1030c00081805a0002015b0083815b004f0678001b
:1030d0004f05be004f04be0000000600889fbe00e2
:1030e0008a9fbe008c9fbe000404be000605be0081
:1030f000809fbe00829fbe002f000700040678005c
:103100000800be000a01be002b00070084067800fc
:103110004f03be004f02be008d4f76007fb0970078
:1031200013003300f0ff2f008b8f6b0006003b0075
:103130000d0666000c00a7000a00370007f0a60085
:10314000100020000a003700880f5200898f5a00b3
:103150008a0f5b008b8f5b0003003900100020009a
:1031600001003e000000200007f0a7000000ea0078
:103170004f06be004f05be004f04be000000060013
:10318000e48240001078a30007003200640240008f
:103190001178a3003400be001401be000400320008
:1031a0000330a700000006003500be001501be0078
:1031b0000330a0000000060005ff27000582610023
:1031c000070032000428e10001003200240005005d
:1031d0000600070001003a0044000500040805004d
:1031e00002000700f9ff3a00140005006f82610039
:1031f00081027000850271008502720000000600e5
:10320000800078005002be005003be004439de004a
:10321000f700b200f37f20000301610009003200d3
:103220000218e10016003a00850172008301730064
:10323000838173000008200015003a004000200040
:1032400013003700850172008301730083817300ce
:1032500005003a0004a8be0006a8be001000200029
:103260000b0037000201e9000402420085824a0097
:1032700006034b0087834b000748a300f9ff320089
:103280000740a00004a8be0006a8be002000200041
:0c329000800098009200980000000600ea
:020000040000fa
:10329c000200fa00000f78000b0037001e027800c5
:1032ac00144278000402fb00241188000000000086
:1032bc00151180000420200004826200e00f5200ef
:1032cc00fbff3a001e0fe8001e0278001442780043
:1032dc00e04f5200f1ff3a000080fa0000000600b7
:1032ec000000fa002002a900041180000410a100c3
:1032fc000420a1000411880020a2a9002062a900ca
:10330c00840120004411880023a2a90023e2a90013
:10331c009580a80021e2a8002342a80020ff2800e5
:10332c000100200033f40700441082000402e8007e
:10333c0044108a000080fa00000006000000fa0029
:10334c000002eb0084088800840880000440a1007f
:10335c000450a100840888000002eb0034088800a7
:10336c0094942000640888003405800004c0a000f8
:10337c0004d0a10004e0a1003405880084e0a90079
:10338c0094e0a800441082000402e80044108a0073
:10339c000080fa00000006000000fa000440200043
:1033ac00041988000002eb0014198800041980002d
:1033bc000480a0000490a000041988004519800026
:1033cc0004fe2f00048262000420a000441988002f
:1033dc0028e3a9000002eb0084198800141980006e
:1033ec0004d0a10004e0a10004f0a100141988008d
:1033fc002400200024198800441082000402e800f4
:10340c0044108a000080fa00000006000000fa0058
:10341c0061e3a9006143a900041b80000480a100a2
:10342c000490a100041b880068e3a900441b8000e1
:10343c000400a0000410a0000420a1000430a1008e
:10344c00441b88000002eb00241b88000002eb00e8
:10345c00141b88000080fa00000006001000fa001f
:10346c00889fbe00700798000002eb00040f7800e4
:10347c000002eb00140798000002eb0064079800b0
:10348c006022b800440798005507980004002300f8
:10349c002407980004002300340798000002eb0076
:1034ac00040f78000002eb00140798001900370095
:1034bc001e02900004024200fe02900004824200b0
:1034cc00940278001e0278004223dd0004002300e1
:1034dc0004024300050a78001e0290000402e80072
:1034ec0004024200fe029000048242009402780022
:1034fc001e0278004223dd00240023000402430056
:10350c00050a78001e0fe8001e0290000482e800f5
:10351c0014079800f41f20009e027800848f52003c
:10352c00e3ff34000d0037001e027800c222dd00dc
:10353c0004002300048242008002eb00050a78009c
:10354c001e027800c222dd00240023000482420007
:10355c008002eb00050a78001e0fe800e43f200013
:10356c009e027800848f5200efff34000002eb00c3
:10357c00040f7800090037002e0290001402780026
:10358c008482d1002e029000050a78002e02900051
:10359c000482e800240798001e0fe800f43f200086
:1035ac009e027800848f5200f3ff3400c47f230006
:1035bc0024079800c4ff230034079800044020001f
:1035cc00040f78000e0037002e0290009402780051
:1035dc003e029000050a78002e0290000482e90059
:1035ec00240798003e0290008002eb001502980020
:1035fc003e02900064025200340798001e0fe9004e
:10360c001e027800e00f5200efff3c000400200087
:10361c008402780004002a008501780004017800f7
:10362c0001002300a0002000eff30700010023009d
:10363c00a00020002cf4070002002300010023004e
:10364c0000402000c5f307000002eb00040f7800d7
:10365c000d0037001e027800c222dd00040023009a
:10366c00048242008002eb00050a78001e027800fa
:10367c00c222dd0024002300048242008002eb0001
:10368c00050a78001e0fe8001e027800e40f5200b5
:10369c00f0ff34006c0247000401780001002300a5
:1036ac0000202000c3f307006e029000cfa2de00c2
:1036bc000400be00b9f407000002be0002002c009a
:1036cc0013fc23000400be0019f507000002be0025
:1036dc004407980055079800520c220003f82b0061
:1036ec004e009000de00900011f507000002be00b5
:1036fc0002002500235424000400be0016f4070029
:10370c000002be00440798005507980019c0b3008a
:10371c0002002400c35924004e009000de009000eb
:10372c0079f4070000027800e00f52000100350028
:10373c008044eb0018c0b30002002000a34f24000b
:10374c004e009000de00900071f40700000278003b
:10375c00e00f520001003c000044eb0008c2640082
:10376c00e04f5200030032004e029000de02900047
:10377c00010037006022b8000400be004f04be00f8
:10378c000080fa00000006000000fa000002eb00c6
:10379c00640988000002eb0014098800041720005b
:1037ac0044098800caa2a800d405800004c0a10066
:1037bc0004d0a10004e0a000d405880089e0a90091
:1037cc0099e0a8000080fa00000006001a00fa0038
:1037dc00300f9800410f980002002000832c240029
:1037ec003e089000ce089000d1f407000002be0005
:1037fc000400be0048f407000002be00048fbe00a7
:10380c0014002000050020002407980035079800bc
:10381c000002eb0044079800140020000500200073
:10382c002407980035079800100037003e029000de
:10383c006a22b900040378002e0290006022b900bd
:10384c000402780004034300ae029000a4002000a0
:10385c00042ab80005034300860278002407980068
:10386c003507980024079800350798002e02900021
:10387c00be029000be0f5200ae8f5a00ebff340018
:10388c002e029000be029000a20020000300200037
:10389c000400be000df407000002be0024079800cf
:1038ac00350798001e0037002e019000be019000d5
:1038bc001e00be0005f407000002be008402780062
:1038cc004e02900004024200040247006a024200c9
:1038dc00050a78004e0290000402e80044079800a4
:1038ec001e02be002e019000be0190000400be001e
:1038fc0080f407000002be00048fbe002e02900070
:10390c00be029000a2002000030020000400be00b4
:10391c00eef307000002be0024079800350798005c
:10392c002e029000be029000e00f5200e08f5a0071
:10393c00ddff3c005e029000044278006a22b90070
:10394c0004027800844278006e02900004427800f1
:10395c0004c24200a5052100844a78007e02900032
:10396c00044278006a22b90004027800844278008c
:10397c000e0a90000442780004c242009505210012
:10398c00844a78001e0a9000044278006a22b9002a
:10399c0004027800844278002e0a900004427800d9
:1039ac0004c2420085052100844a78008405210068
:1039bc00040078000080fa00000006000000fa0005
:1039cc00f4fe2f00641988000401200034168800ce
:1039dc0043fe070059fe07006ffe07006aff070051
:1039ec008afe0700ce1007000202200001802a0088
:1039fc0000802000eff407000080200024fe070068
:103a0c0001003700000000008003210015110700a1
:103a1c00004278000482fb0064108a00e48180007c
:103a2c00f5818000c32bde00cd28dd004323de00b2
:103a3c0006837000041082001510820004026b00d3
:103a4c0085826b000502720004f0a7000402ea00f4
:103a5c000402e9004f22de00840278006410820028
:103a6c0004826200e00f5200e6ff32005202200096
:103a7c0001822a0000802000cef407000080200084
:103a8c0003fe07002de1a8000000000034108200a6
:103a9c00e00f5200fdff320034108200e10f5200a3
:103aac0006003a005201200051842a0000802000b8
:103abc00c0f4070000802000f5fd070020832000e3
:103acc0066fe07000002be005482880065828800f2
:103adc005482800065828000849fbe00a4852a00e9
:103aec00841f780000802000b9f40700e687570097
:103afc0000802000e6fd0700548280006582800073
:103b0c00925c2e00f3f723000400be0008f40700bb
:103b1c000002be00a21a2f00c31424000400be0031
:103b2c000df307000002be005482880065828800f5
:103b3c0054828000658280000400be0023ff0700d1
:103b4c0000027800948188000002eb0034108a0097
:103b5c00948180000482e80014427800050421005e
:103b6c00844a780015042100b4cab300844a780052
:103b7c00948180000402e80014427800250421009e
:103b8c00844a780035042100d4ccb300844a7800f0
:103b9c00948180001442780045042100844a780006
:103bac0055042100f4ceb300844a7800850421002a
:103bbc0064c0b300844a780006108200171082009b
:103bcc00433add00cd32de00850272004332dd0067
:103bdc00e4818800f58188000171220080032100b6
:103bec00ae0e070088ff37000000fa008580a900a0
:103bfc000080fa00004006003600f800809fbe00ee
:103c0c00829fbe00849fbe00869fbe000000fa000b
:103c1c002023a8004002200001002000f5f107003d
:103c2c002023a9000000000004198000610262003a
:103c3c00e00f5200fcff32002410820005188000b7
:103c4c00050378008403420025832000858243000d
:103c5c00860a78000402e80024108a0025108200ed
:103c6c0004402000848f520006003a0011e1a900a4
:103c7c0021e3a9001400200034108a000002eb009c
:103c8c0024108a0084e0a9000080fa004f03be00d3
:103c9c004f02be004f01be004f00be003600f900bf
:103cac00004006003600f800809fbe00829fbe00d8
:103cbc00849fbe00869fbe000000fa005416800050
:103ccc004522de006142620004c2ea0061426200e9
:103cdc000482fb00610262004522dd005616800062
:103cec00f5fd2f00850263000482720054168800d3
:103cfc00b48180000402e800b4818800b4818000a3
:103d0c00e50f52000f003a00541082000402e80044
:103d1c0054108a0054108200cfa2de000401be00b1
:103d2c0040d42100c1012000e8f207000002be00cf
:103d3c0004027800440988000002eb00b48188007a
:103d4c000d00370055108200c4c12000848f520032
:103d5c0009003a00449c200054108a000002eb0039
:103d6c00b4818800caa2a800ca82a8002de1a900cb
:103d7c0021e3a80011e1a80089e0a9000080fa0065
:103d8c004f03be004f02be004f01be004f00be00ed
:103d9c003600f90000400600849fbe000000fa00c7
:103dac008860a9005420800061026200e00f52007c
:103dbc00010032000a04a900542080006202620053
:103dcc00e00f520003003200042180000421800027
:103ddc000a24a900552080000402200004826200fd
:103dec00e00f5200040032002420800024208000c8
:103dfc00242080000aa4a90055208000040820007b
:103e0c0004826200e00f5200010032000ae4a900b3
:0c3e1c000080fa004f02be0000400600cb
:020000040000fa
:10400000ff7f000000000000ff7f000037ff00007e
:10401000fe7f00006efe0000fa7f0000a5fd00009c
:10402000f67f0000dcfc0000f17f000013fc0000c4
:10403000ea7f00004afb0000e27f000081fa0000f6
:10404000d97f0000b8f90000ce7f0000eff8000033
:10405000c27f000027f80000b57f00005ef7000077
:10406000a77f000095f60000987f0000cdf50000c6
:10407000877f000005f50000757f00003cf400001c
:10408000627f000074f300004e7f0000acf200007d
:10409000387f0000e4f10000227f00001cf10000e6
:1040a0000a7f000055f00000f07e00008def000058
:1040b000d67e0000c6ee0000ba7e0000ffed0000d4
:1040c0009d7e000038ed00007f7e000071ec000056
:1040d000607e0000abeb00003f7e0000e4ea0000e1
:1040e0001e7e00001eea0000fb7d000058e9000073
:1040f000d67d000092e80000b17d0000cde7000011
:104100008a7d000007e70000637d00004236000062
:104110003a7d00007de500000f7d0000b9e400005d
:10412000e47c0000f4e30000b77c000030e3000012
:10413000897c00006de200005a7c0000a9e10000cb
:104140002a7c0000e6e00000497b000023e000003c
:10415000c67b000061df0000927b00009ede000055
:104160005d7b0000dcdd0000277b00001bdd000024
:10417000ef7a000059dc0000b77a000099db0000fc
:104180007d7a0000d8da0000427a000018da0000d8
:10419000067a000058d90000c979000098d80000bc
:1041a0008a790000d9d700004a7900001bd70000a7
:1041b0000a7900005cd60000c87800009ed5000097
:1041c00085780000e1d400004078000024d400008d
:1041d000fb77000067d30000b4770000abd200008b
:1041e0006c770000efd100002377000034d100008d
:1041f000d976000079d000008e760000becf000096
:104200004276000004cf0000f47500004bce0000a1
:10421000a675000092cd000056750000d9cc0000b4
:104220000575000021cc0000b374000069cb0000cc
:1042300060740000b2ca00000b740000fcc90000ea
:10424000b673000046c900005f73000090c800000c
:1042500008730000dbc70000af72000027c7000032
:104260005572000073c60000fa710000c0c500005e
:104270009e7100000dc50000417100005bc400008c
:10428000e3700000a9c3000083700000f8c20000c2
:104290002370000048c20000c26f000098c10000f7
:1042a0005f6f0000e9c00000fb6e00003ac0000034
:1042b000976e00008cbf0000316e0000dfbe000072
:1042c000ca6d000032be0000626d000086bd0000b5
:1042d000f96c0000dabc00008f6c00002fbc0000fd
:1042e000246c000085bb0000b86b0000dcba000045
:1042f0004b6b000033ba0000dd6a00008bb9000090
:104300006e6a0000e3b80000fd6900003cb80000e0
:104310008c69000096b700001a690000f1b6000031
:10432000a76800004cb6000032680000a8b5000085
:10433000bd67000005b500004767000062b40000db
:10434000d0660000c0b30000576600001fb3000035
:10435000de6500007fb2000064650000dfb1000090
:10436000e964000040b100006c640000a2b00000ed
:10437000ef63000005b000007163000068af00004b
:10438000f2620000ccae00007262000031ae0000ac
:10439000f161000097ad00006f610000fdac00000e
:1043a000ec60000065ac000068600000cdab000070
:1043b000e45f000036ab00005e5f0000a0aa0000d2
:1043c000d75e00000aaa0000505e000076a9000037
:1043d000c85d0000e2a800003e5d00004fa800009c
:1043e000b45c0000bda70000295c00002ca7000001
:1043f0009d5b00009ca60000105b00000c160000f6
:10440000825a00007ea50000f459000063a4000059
:104410006459000063a40000d4580000d7a3000032
:10442000435800004ca30000b1570000c2a2000096
:104430001e57000038a200008a560000b0a10000fc
:10444000f655000029a1000060550000a2a0000060
:10445000ca5400001ca0000033540000989f0000c4
:104460009b530000149f000003530000919e000026
:10447000695200000f9e0000cf5100008e9d000089
:10448000345100000e9d0000985000008f9c0000e9
:10449000fb4f0000119c00005e4f0000949b000049
:1044a000c04e0000179b0000214e00009c9a0000a7
:1044b000814d0000229a0000e14c0000a999000003
:1044c000404c0000309900009e4b0000b99800005d
:1044d000fb4a000043980000584a0000ce970000b5
:1044e000b4490000599700000f490000e69600000b
:1044f0006a48000074960000c4470000039600005c
:104500001d470000929500007546000023950000ad
:10451000cd450000b59400002445000048940000fb
:104520007b440000dc930000d14300007193000045
:1045300026430000079300002a4700009e920000d7
:10454000ce4100003692000021410000cf910000d2
:104550007440000069910000c63f00000591000012
:10456000173f0000a1900000683e00003e90000050
:10457000b83d00007d8f0000083d00007d8f0000e9
:10458000573c00001d8f0000a53b0000bf8e0000bf
:10459000fe3a0000628e0000403a0000068e0000e5
:1045a0008d390000ab8d0000d9380000518d00001e
:1045b00025380000f88c000070370000a18c000046
:1045c000ba3600004a8c000004360000f58b00006b
:1045d0004e350000a08b0000973400004d8b00008a
:1045e000df330000fb8a000027330000aa8a0000a6
:1045f0006e3200005a8a0000b53100000c8a0000bb
:10460000fc300000be8900004230000072890000ca
:10461000872f000027890000cc2e0000dd880000d5
:10462000112e000094880000552d00004c880000d9
:10463000992c000005880000dc2b0000c0870000da
:104640001f2b00007b870000622a000038870000d3
:10465000a4290000f6860000e5280000b6860000c8
:1046600027280000768600006827000037860000b3
:10467000a8260000fa850000e8250000be8500009d
:10468000282500008385000067240000498500007c
:10469000a723000011850000e5220000d984000056
:1046a00024220000ae840000622100006e8400001d
:1046b0009f2000003a840000dd1f000007840000f6
:1046c0001a1f0000d6830000571e0000a6830000ba
:1046d000931d000077830000d01c00004983000078
:1046e0000c1c00001c830000471b0000f18200002e
:1046f000831a0000c6820000be1900009d820000df
:10470000f918000076820000331800004f82000084
:104710006e1700002a820000a81600000582000023
:10472000e2150000e28100001c150000c1810000bc
:1047300055140000a08100008f130000818100004b
:10474000c8120000638100000112000046810000d1
:104750003a1100002a81000073100000108100004f
:10476000ab0f0000f6800000e40e0000de800000c9
:104770001c0e0000c8800000540d0000b280000034
:104780008c0c00009e800000c40b00008b80000099
:10479000fb0a000079800000330a000068800000f6
:1047a0006b09000059800000a20800004b80000047
:1047b000d90700003e800000110700003280000091
:1047c00048060000278000007f0500001e800000d2
:1047d000b604000016800000ed0300000f8000000a
:1047e000240300000a8000005b0200000680000035
:1047f0009201000002800000c9000000018000005a
:10480000000000000080000037ff00000180000071
:104810006efe000002800000a5fd00000680000082
:10482000dcfc00000a80000013fc00000f80000088
:104830004afb00001680000081fa00001e80000084
:10484000b8f9000027800000eff800003280000077
:1048500027f800003e8000005ef700004b8000005b
:1048600095f6000059800000cdf50000688000003a
:1048700005f50000798000003cf400008b8000000a
:1048800074f300009e800000acf20000b2800000d3
:10489000e4f10000c88000001cf10000de80000090
:1048a00055f00000f68000008def00001081000040
:1048b000c6ee00002a810000ffed000046810000e6
:1048c00038ed00006381000071ec00008181000080
:1048d000abeb0000a0810000e4ea0000c181000011
:1048e0001eea0000e281000058e900000582000095
:1048f00092e800002a820000cde700004f8200000d
:1049000007e700007682000042e600009d8200007a
:104910007de50000c6820000b9e40000f1820000dd
:10492000f4e300001c83000030e300004983000032
:104930006de2000077830000a9e10000a68300007b
:10494000e6e00000d683000023e0000007840000ba
:1049500061df00003a8400009ede00006e840000eb
:10496000dcdd0000a38400001bdd0000d984000012
:1049700059dc00001185000099db0000498500002a
:10498000d8da00008385000018da0000be85000038
:1049900058d90000fa85000098d80000378600003a
:1049a000d9d70000768600001bd70000b68600002d
:1049b0005cd60000f68600009ed500003887000017
:1049c000e1d400007b87000024d40000c0870000f1
:1049d00067d3000005880000abd200004c880000bf
:1049e000efd100009488000034d10000dd88000081
:1049f00079d0000027890000becf00007289000036
:104a000004cf0000be8900004bce00000c8a0000dd
:104a100092cd00005a8a0000d9cc0000aa8a00007a
:104a200021cc0000fb8a000069cb00004d8b000008
:104a3000b2ca0000a08b0000fcc90000f58b00008a
:104a400046c900004a8c000090c80000a18c0000fc
:104a5000dbc70000f88c000027cd0000518d00005e
:104a600073c60000ab8d0000c0c50000068e0000bc
:104a70000dc50000628e00005bc40000bf83000013
:104a8000a9c300001d8f0000f8c200007d8f000048
:104a900048c20000dd8f000098c100003e90000079
:104aa000e9c00000a19000003ac00000059100009c
:104ab0008cbf000069910000dfbe0000cf910000b4
:104ac00032be00003692000086bd00009e920000bb
:104ad000dabc0000079300002fbc000071930000b7
:104ae00085bb0000dc930000dcba000048940000a5
:104af00033ba0000b59400008b89000023950000b4
:104b0000e3b80000929500003cb800000396000056
:104b100096b7000074960000f1b60000e69600001b
:104b20004cb6000059970000a8b50000ce970000d1
:104b300005b500004398000062b40000b998000079
:104b4000c0b30000309900001fb30000a999000015
:104b50007fb20000229a0000dfb100009c9a0000a2
:104b600040b10000179b0000a2b00000949b000021
:104b700005b00000119c000068af00008f9c000091
:104b8000ccae00000e9d000031ae00008e9d0000f6
:104b900097ad00000f9e0000fdac0000919e00004c
:104ba00065ac0000149f0000cdab0000989f000092
:104bb00036ab00001ca00000a0aa0000a2a00000cc
:104bc0000aaa000029a1000076a90000b0a10000f7
:104bd000e2a8000038a200004fa80000c2a2000016
:104be000bda700004ca300002ca70000d7a3000025
:104bf0009ca6000063a400000ca60000f0a4000026
:104c00007ea500007ea50000f0a400000ca6000018
:104c100063a400009ca60000d7a300002ca70000fe
:104c20004ca30000bda70000c2a200004fa80000d6
:104c300038a20000e2a80000b0a1000076a90000a0
:104c400029a100000aaa0000a2a00000a0aa00005a
:104c50001ca0000036ab0000989f0000cdab000008
:104c6000149f000065ac0000919e0000fdac0000a8
:104c70000f9e000097ad00008e9d000031ae000039
:104c80000e9d0000ccae00008f9c000068af0000bd
:104c9000119c000005b00000949b0000a2b0000031
:104ca000179b000040b100009c9a0000dfb100009b
:104cb000229a00007fb20000a99900001fb30000f3
:104cc00030990000c0b30000b998000062b4000041
:104cd0004398000005b50000ce970000a8b500007d
:104ce000599700004cb60000e6960000f1b60000af
:104cf0007496000096b70000039600003cb80000d0
:104d000092950000e3b80000239500008bb90000e5
:104d1000b594000033ba000048940000dcba0000eb
:104d2000dc93000085bb000071930000cfb200004f
:104d300007930000dabc00009e92000086bd0000d0
:104d40003692000032be0000cf910000dfbe0000ae
:104d5000699100008cbf0000059100003ac000007e
:104d6000a1900000e9c000003e90000098c1000042
:104d7000dd8f000048c200007d8f0000f8c20000f7
:104d80001d8f0000a9c30000bf8e00005bc400009f
:104d9000628e00000dc50000068e0000c0c5000038
:104da000abbd000073c60000518d000027c7000096
:104db00027c70000dbc70000a18c000090c80000de
:104dc0004a8c000046c90000f58b0000fcc90000b9
:104dd000a08b0000b2ca00004d8b000069cb000020
:104de000fb8a000021cc0000aa8a0000d9cc000078
:104df0005a8a000092cd00000c8a00004bce0000c1
:104e0000be89000004cf000072890000becf000000
:104e10002789000079d00000dd88000034d100002f
:104e200094880000efd100004c880000abd2000055
:104e30000588000067d30000c087000024d400006c
:104e40007b870000e1d40000388700009ed5000079
:104e5000f68600005cd60000b68600001bd7000076
:104e600076860000d9d700003786000098d8000069
:104e7000fa85000058d90000be85000018da00004d
:104e800083850000d8da00004985000099db000026
:104e90001185000059dc0000d98400001bdd0000f2
:104ea000a3840000dcdd00006e8400009ede0000b4
:104eb0003a84000061df00000784000023e0000066
:104ec000d6830000e6e00000a6830000a9e1000010
:104ed000778300006de200004983000030e30000aa
:104ee0001c830000f4e30000f1820000b9e400003c
:104ef000c68200007de500009d82000042e60000c1
:104f00007682000007e700004f820000cde7000036
:104f10002a82000092e800000582000058e90000a3
:104f2000e28100001eea0000c1810000e4ea000006
:104f3000a0810000abeb00008181000071ec00005b
:104f40006381000038ed000046810000ffed0000a5
:104f50002a810000c6ee0000108100008def0000e5
:104f6000f680000055f00000de8000001cf100001b
:104f7000c8800000e4f10000b2800000acf2000044
:104f80009e80000074f300008b8000003cf4000061
:104f90007980000005f5000068800000cdf5000074
:104fa0005980000095f600004b8000005ef700007d
:104fb0003e80000027f8000032800000eff800007b
:104fc00027800000b8f900001e80000081fa000070
:104fd000168000004afb00000f80000013fc000058
:104fe0000a800000dcfc000006800000a5fd000037
:104ff000028000006efe00000180000037ff00000c
:105000004e4f0000524d0000414c0000204d00006a
:105010004f440000452c000020570000414900008b
:1050200054200000464f0000522000004d41000077
:1050300053540000455200002e0d00000a000000ed
:10504000434100004e200000504f00004c4c000037
:10505000205200004543000049450000564500002d
:10506000442c000020530000544100005254000022
:1050700020530000414d0000504c0000494e0000fc
:10508000472e00000d0a000000730000616d000053
:10509000706c0000696e0000672000006669000007
:1050a0006e69000073680000656400002e0d00004a
:1050b0000a000000252e0000336600000d0a0000e3
:0450c00000000000ec
:020000040000fa
:1050c4000042000010000000020000002800000060
:1050d400000000000000000000c4090000000000ff
:1050e40000000000000800005c0800000000000050
:1050f400003000000010000002000000ff7fff00ed
:105104007fff7f00ff7fff007f018000018001009f
:10511400800180000180ff007fff7f00ff7fff0090
:105124007fff7f0001800100800180000180010079
:1051340080ff7f00ff7fff007fff7f00ff7f010074
:10514400800180000180010080018000ff7fff005a
:105154007fff7f00ff7fff007f018000018001004f
:10516400800180000180ff007fff7f00ff7fff0040
:105174007fff7f0001800100800180000180010029
:1051840080ff7f00ff7fff007fff7f00ff7f010024
:10519400800180000180010080018000ff7fff000a
:1051a4007fff7f00ff7fff007f01800001800100ff
:1051b400800180000180ff007fff7f00ff7fff00f0
:1051c4007fff7f00018001008001800001800100d9
:1051d40080ff7f00ff7fff007fff7f00ff7f0100d4
:1051e400800180000180010080018000ff7fff00ba
:1051f4007fff7f00ff7fff007f01800001800100af
:10520400800180000180ff007fff7f00ff7fff009f
:105214007fff7f0001800100800180000180010088
:1052240080ff7f00ff7fff007fff7f00ff7f010083
:10523400800180000180010080018000ff7fff0069
:105244007fff7f00ff7fff007f018000018001005e
:10525400800180000180ff007fff7f00ff7fff004f
:105264007fff7f0001800100800180000180010038
:1052740080ff7f00ff7fff007fff7f00ff7f010033
:10528400800180000180010080018000ff7fff0019
:105294007fff7f00ff7fff007f018000018001000e
:1052a400800180000180ff007fff7f00ff7fff00ff
:1052b4007fff7f00018001008001800001800100e8
:1052c40080ff7f00ff7fff007fff7f00ff7f0100e3
:1052d400800180000180010080018000ff7fff00c9
:1052e4007fff7f00ff7fff007f01800001800100be
:1052f400800180000180ff007fff7f00ff7fff00af
:105304007fff7f0001800100800180000180010097
:1053140080ff7f00ff7fff007fff7f00ff7f010092
:10532400800180000180010080018000ff7fff0078
:105334007fff7f00ff7fff007f018000018001006d
:10534400800180000180ff007fff7f00ff7fff005e
:105354007fff7f0001800100800180000180010047
:1053640080ff7f00ff7fff007fff7f00ff7f010042
:10537400800180000180010080018000ff7fff0028
:105384007fff7f00ff7fff007f018000018001001d
:10539400800180000180ff007fff7f00ff7fff000e
:1053a4007fff7f000180000000000000000000007b
:1053b40000000000000000000000000000000000e9
:1053c40000000000000000000000000000000000d9
:1053d40000000000000000000000000000000000c9
:1053e40000000000000000000000000000000000b9
:10665400000000008047000040000000000000002f
:10666400e64700001800000002000000286e7500d4
:106674006c6c290000303100323334003536370079
:10668400383961006263640065660000604100009f
:10669400a000000002000000010000000000000053
:1066a40000000a0000000000000000000064000078
:1066b4000000000000000000e803000000000000eb
:1066c40000001000270000000000000000a0860069
:1066d400010000000000000040420f000000000024
:1066e4000000800096980000000000000000e10017
:1066f400f50500000000000000ca9a003b000000fd
:1067040000000000e40b5400020000000000e80058
:1067140076481700000000000010a500d4e800002f
:1067240000000000a0724e001809000000004000a4
:106734007a10f3005a0000000080c600a47e8d0089
:106744000300000000c16f00f28623000000000077
:106754008a5d78004563010000006400a7b3b600b9
:10676400e00d000000e889000423c7008a0000004f
:106774000040000060010000020000000000000072
:1067840000000000f03f00000000000000002400b2
:10679400400000000000000000594000000000001c
:1067a400000040008f400000000000000088c3008b
:1067b40040000000000000006af8400000000000f3
:1067c400008084002e41000000000000d01263000d
:1067d4004100000000008400d79741000000000041
:1067e4000065cd00cd410000000020005fa0020044
:1067f4004200000000801d00af15440000000000ae
:1068040040593e0029460000000000000000f0004e
:106814007f0000000000000000f07f000000000086
:1068240000000000f07f0000000000000000f00005
:106834007f0000000000000000f07f000000000066
:1068440000000000f07f0000000000000000f000e5
:106854007f0000000000000000f07f000000000046
:1068640000000000f07f0000000000000000f000c5
:106874003f00000000a0990099b93f00000000000b
:1068840040e17a00843f00000000e0004d625000c7
:106894003f00000000e0e200361a3f000000000064
:1068a40080b5f800e43e00000000a000f7c6b00088
:1068b4003e00000000a0f200d77a3e000000000075
:1068c400e08e7900453e00000000e0000b2e110030
:1068d4003e00000000e0df007cdb3d000000000023
:1068e40000a19c00c73b0000000000004c48b4001d
:1068f40039000000000020006ca1370000000000f7
:106904000000000000000000000000000000000083
:106914000000000000000000000000000000000073
:106924000000000000000000000000000000000063
:106934000000000000000000000000000000000053
:106944000000000000000000000000000000000043
:1069540000000000104200000600000000000000db
:10696400c0470000260000000200000011420000a1
:106974000011420009000000000200001342000060
:10698400001342000e02010000000000000000009d
:10699400000000000602020000000000c0470000e2
:1069a400fe47000002000000020000000100000099
:0469b40000000000df
:020000040000fa
:1069b8000000fa000002eb00041f88000402220015
:1069c800041c880024442000441c88007400200013
:1069d800541c880064042000141c880004782000db
:1069e800241c880081e3a8000080fa00000006004b
:1069f8000000fa000002eb00041f880004022000d7
:106a0800c41c880004442000041d88007400200071
:106a1800141d880024022000d41c8800047820005b
:106a2800e41c88009700a9008700a90099e3a80042
:106a38000080fa00000006000000fa00de22a9002b
:106a4800de02a8000080fa00000006000000fa003c
:106a58008480a9000080fa00004006000000fa00c7
:106a68008700a9000080fa00004006002000fa0014
:106a7800200f9800320f9800430f9800510f98008c
:106a8800640f9800750f98006022b800048fbe004c
:106a98006022b80024079800350798006022b800e3
:106aa80044079800550798000004a8002e0a900093
:106ab80004024200040242008402780004442000d8
:106ac80004824200640798002e0a900042a2de0069
:106ad800040242008402780004422000048242003a
:106ae800740798002e0a900043a2de0004024200b8
:106af800840278008441200004824200040f980038
:106b080044412000140f98005e0a9000e10f5200e3
:106b180049003a003e0b9000ce0b9000f4ff2f0086
:106b28000500200006007800070378008403780039
:106b380005027800070060000402630005002000d9
:106b4800c022dd00040020000403be006102b8007a
:106b5800040373008583730026079800370798009d
:106b68003e0a9000ce0a900040aade00cfa2de00c6
:106b78000403be0034002000050020000600780051
:106b88000703780084037800050278000700600096
:106b98000402630005002000c022dd00040020007c
:106ba8000403be006102b800040373008583730008
:106bb80046079800570798003e0a9000ce0a9000b2
:106bc80042aade00cfa2de000403be00f47f20004c
:106bd8000500200006007800870378000403780089
:106be80005027800060360000482630005002000a7
:106bf800c022dd0004002000048fbe006132b8000e
:106c08001e1f72001e9772001e027800c522dd004a
:106c18004e02900004824200e80242006e02900098
:106c2800050a78006e0290000482e800ae02900027
:106c3800050a7800190037003e0b9000ce0b900033
:106c4800f47f200005002000060078008703780004
:106c580004037800050278000603600004826300dc
:106c680005002000c022dd0004002000048fbe00c3
:106c78006132b8001e1f72001e9772001e02780053
:106c8800c522dd006e029000050a78006e029000b1
:106c98000482e8008002eb00050a78007e0290007a
:106ca800940278002e0a9000630262004222dd00fe
:106cb800f60020000432dd000482ea0084826200cb
:106cc8007e029000050a78002e0a90006302620096
:106cd8004222dd00ee0a9000842add007e02900048
:106ce80014027800848272007e029000050a7800ff
:106cf8000e0a9000940278002e0a90006702620043
:106d080004024200360020000432dd000482ea005a
:106d1800848262000e0a9000050a78002e0a90000c
:106d28006702620004024200fe0a9000842add0025
:106d38000e0a900014027800848272000e0a9000f5
:106d4800050a7800150020002e0a9000042add00ac
:106d5800840278001e0a900014027800848272006f
:106d68001e0a9000050a78000004a9000080fa00b5
:106d7800000006000a00fa00100798002207980091
:106d880033079800410798001e0290004522dd0055
:106d9800040f78004e029000e10f520002003a0002
:106da8001e30a00002003700e4ff2f001e0f620013
:106db8002e029000be029000402ade00050020004e
:106dc800040278001e0f72001e027800040078008a
:106dd8000080fa00000006000400fa00000f7800a6
:106de800110798000004a80014012000a4208800be
:106df8008000eb006011b8001e007800ddff07007e
:106e08000002780004228800b4fe2f008421880044
:106e18000082eb0094218800c42080000400a100b7
:106e28000410a100c42088001e02900004427800cb
:106e38006f4262000482fb006f026200062180003c
:106e480005ff2f0085026300048272000421880078
:106e58000080fa00000006001800fa007007980089
:106e6800020f9800130f9800210f9800340f980014
:106e78006022b800048fbe006022b8002407980082
:106e8800350798006022b800440798005507980015
:106e98000004a8007e02900004024200040242009e
:106ea80084027800044320000482420064079800aa
:106eb8003e0a9000e10f520053003a000e0b90007a
:106ec8009e0b9000f4ff2f000500200006007800bc
:106ed8000703780084037800050278000700600043
