:020000040000fa
:080000001c02040000000000d6
:020000040000fa
:10000800b0020000b0020000b0020000b002000020
:10001800b0020000b0020000b0020000b002000010
:10002800b0020000b0020000b0020000b002000000
:100038000e350000b0020000b00200009444000039
:10004800b0020000b0020000b0020000b0020000e0
:100058008c440000b0020000b0020000b0020000b2
:10006800b0020000b0020000b0020000b0020000c0
:10007800b0020000b0020000b0020000b0020000b0
:1000880016350000b0020000b0020000b002000007
:10009800b0020000b0020000b0020000b002000090
:1000a800b0020000b0020000b00200006445000089
:1000b800b0020000b0020000b0020000b002000070
:1000c800b0020000b0020000b0020000b002000060
:1000d800b0020000b0020000b0020000ea440000d4
:1000e800b0020000b0020000b0020000b002000040
:1000f800b0020000b0020000b0020000b002000030
:10010800b0020000b0020000b0020000b00200001f
:10011800b0020000b0020000b0020000b00200000f
:10012800b0020000b0020000b0020000b0020000ff
:10013800b0020000b0020000b0020000b0020000ef
:10014800b0020000b0020000b0020000b0020000df
:10015800b0020000b0020000b0020000b0020000cf
:10016800b0020000b0020000b0020000b0020000bf
:10017800b0020000b0020000b0020000b0020000af
:10018800b0020000b0020000b0020000b00200009f
:10019800b0020000b0020000b0020000b00200008f
:1001a800b0020000b0020000b0020000b00200007f
:1001b800b0020000b0020000b0020000b00200006f
:1001c800b0020000b0020000b0020000b00200005f
:1001d800b0020000b0020000b0020000b00200004f
:1001e800b0020000b0020000b0020000b00200003f
:0801f800b0020000b00200009b
:020000040000fa
:10020800b0020000b0020000b0020000b00200001e
:10021800b0020000b0020000b0020000b00200000e
:10022800b0020000b0020000b0020000b0020000fe
:100238000e350000b0020000b00200009444000037
:10024800b0020000b0020000b0020000b0020000de
:100258008c440000b0020000b0020000b0020000b0
:10026800b0020000b0020000b0020000b0020000be
:10027800b0020000b0020000b0020000b0020000ae
:1002880016350000b0020000b0020000b002000005
:10029800b0020000b0020000b0020000b00200008e
:1002a800b0020000b0020000b00200006445000087
:1002b800b0020000b0020000b0020000b00200006e
:1002c800b0020000b0020000b0020000b00200005e
:1002d800b0020000b0020000b0020000ea440000d2
:1002e800b0020000b0020000b0020000b00200003e
:1002f800b0020000b0020000b0020000b00200002e
:10030800b0020000b0020000b0020000b00200001d
:10031800b0020000b0020000b0020000b00200000d
:10032800b0020000b0020000b0020000b0020000fd
:10033800b0020000b0020000b0020000b0020000ed
:10034800b0020000b0020000b0020000b0020000dd
:10035800b0020000b0020000b0020000b0020000cd
:10036800b0020000b0020000b0020000b0020000bd
:10037800b0020000b0020000b0020000b0020000ad
:10038800b0020000b0020000b0020000b00200009d
:10039800b0020000b0020000b0020000b00200008d
:1003a800b0020000b0020000b0020000b00200007d
:1003b800b0020000b0020000b0020000b00200006d
:1003c800b0020000b0020000b0020000b00200005d
:1003d800b0020000b0020000b0020000b00200004d
:1003e800b0020000b0020000b0020000b00200003d
:0803f800b0020000b002000099
:020000040000fa
:10040000f03fb1000180b10006003500ee030900a5
:1004100000000000403fb1000180b100fbff3d0043
:100420001000b000203fb00002003500008009003d
:100430000000000000000600af0521000eff2200b2
:100440000e0188000000000000012000200288004a
:100450000c0007004083220001002000110007006b
:10046000000020000000e000020032000000020056
:10047000000000000a440200000000000040da0012
:100480000000fe004440a900408320000000e0007e
:100490000300320000002000a00188004440a800b2
:1004a0000000060091018800800078000000eb0049
:1004b00015003700e280400032a0b4009101ba007c
:1004c000e280400032a0b4009102ba00e280400015
:1004d00032a0b4000002eb00472bde00f507b200ab
:1004e000602ce10004003a000059eb008301e900b0
:1004f000fdff3e00040037006128e10001003200ea
:100500000082eb00040007001101ba000200e000c5
:10051000e8ff3a00000006003159ba008301e90003
:100520000c0032002159ba008301e90008003200b2
:100530000400e00003003a00e280400032a0b40072
:10054000f5ff370011d9ba008301e900faff3a003c
:100550008100e800e180400032a0b4000000060005
:100560000040da000000fe00821f7800849fbe0079
:100570008a1f78004400f800040f2000240288003d
:10058000010578000601c3000080e9000080080032
:10059000020000000505f0000401f1003200cd006a
:1005a0000505f0001001f1003200cd004400f90013
:1005b0004f0578004f02be004f0078000000060093
:1005c000b10278000009eb000002e90007003400e6
:1005d000b10178000328e10002003c0083027800aa
:1005e000040950000402e900f9ff3c00050078000e
:1005f00000000600889fbe008a9fbe008c9fbe0040
:100600008e1f78004400f800070f200027028800a2
:100610003400f800811f78000f07780007f02f00e2
:100620000338e10004003200270280004700b300d5
:1006300027028800a301880019002000804cdd00fb
:100640001300200002047800800678008904d1009d
:10065000424edd00010578000302e9000480080035
:10066000170000008a0546004218dd000902e90073
:100670000480080010000000000000004620c300b5
:100680003b025200df35c100080440001381c20064
:10069000ab825200264dc5003e85c400bb00cd0094
:1006a000bb80cd003a00ca002a80ca000700c900fa
:1006b0000580c900ba00cd00ba80cd000a05460009
:1006c000020478008301d0008d06e900dfff3c00c2
:1006d0008e0778004f0078003400f9004400f900dc
:1006e0004f0778004f06be004f05be004f04be0006
:1006f000000006004600f8005000f800022020002c
:100700003202880002002800130020008019dd005a
:1007100002817100820288000100780001017800e6
:1007200026002000470020008301e9000380080024
:10073000070000000110e100040034001102be00b7
:1007400092087800e2307b000489be008780400078
:10075000121978005000f9004600f9000000060068
:1007600003f0a200889fbe008a9fbe008c1f780005
:100770000d010700140133006450e1004f00320006
:100780006420e1005200320003826c0007003b004d
:100790000905d0000306d000820f54000c065d004e
:1007a0000200390002003200890178000306780057
:1007b0008582550004003d000003fd008103fd001b
:1007c0008502ea008b854200840f720002003b0024
:1007d00060001000e08018006011b8000005eb0018
:1007e0007a28e1000a00390006007800c75ddd00c4
:1007f000f707b200878075002d00370082817100f5
:100800000a017800610560008180d1000080d3007a
:100810008502e900f9ff3b00060440008784480098
:1008200002003b0060041400e0841c000988a3005f
:10083000070032008a8171008281710061016400c9
:100840008904d1000884d3008b05e8001700370025
:100850000978a30013003a000b00e00013003400f5
:100860008b05e9000804440089844c000a447400a4
:100870000978a3000d003a000b00e00007003400e7
:100880008b05e9000804440089844c0001003a000b
:100890000b0020000978a300f7ff32000001eb00f5
:1008a00002003700828171000a017800830007008e
:1008b0000cf0a70001f0a000cc0037006420e1009c
:1008c00002003a00838f6c00cc0033000801be00a8
:1008d0000200be00c5003700889fbe008a9fbe0090
:1008e0008c1f7800b0000700b700330003866c004f
:1008f0006450e1002e0032006420e1003300320039
:100900006150e1002f0032006120e100310032002f
:1009100085855500eb07b000090020000804200081
:10092000050037000804440089844c000a003100a7
:100930000603430087834b000001530081815b0065
:10094000f8ff33000203be000800a00008044400c2
:1009500089844c00f6ff3900c639dd00830173003d
:1009600001003200130020008904d1000884d30064
:100970000998a300050032000800a7000300a000aa
:100980008904d1000884d3008b05e8008904d100d4
:100990000884d3000001eb000281d2004700070069
:1009a00001f0a1000cf0a70001f0a0008f003700bb
:1009b0006420e100910032000801be000200be0088
:1009c000f7ff37006120e1008c0032006000b800c2
:1009d000f3ff37000000200001f82700f0ff370088
:1009e000839f68000100e00002003d0060001000ed
:1009f000e08018000300e00002003d0060011100eb
:100a0000e0811900fd0107004f00e00002003b00fb
:100a100060001000e08018000000060014002000b4
:100a20009f023700f4ff2f009d0237000001be0037
:100a3000480007000470a70003f0a1006509b10099
:100a4000160032000d0035006828e1000600350070
:100a5000f0ff2f00f1ff27000300e00013003b0030
:100a600001002800000005000000400081804800cf
:100a70008502e900fcff3a0008003700f88f4200c9
:100a800002003c008000eb00000005008100d10066
:100a90000080d3008502e800fcff3a000300e0007c
:100aa00002003b0060001000e0801800000006001b
:100ab0004f89de0082017800940237008100200017
:100ac000618055000b003d000b00200061fe2f00ef
:100ad0000100e1001d0034008281710061016400a9
:100ae0008904d1000884d3000000e800faff3a002e
:100af00071002000610064000300700002006000cb
:100b00000900320061044400e0844c000988a5001b
:100b1000050032008b05e8006808e10002003a0099
:100b20008904d1000884d300f20f20000258e100ac
:100b300005003d00c75ddd00f907b2008980750042
:100b400008007800000006000bf827008b007800f2
:100b500000000500c70ade00f107b200f50fb20081
:100b600008003200e1cf4200020032000170a00014
:100b700024000500810f7000010032000408050008
:100b800044000500810f700002003a0014000500c7
:100b90008502e9000000400081c04800fcff3b00e6
:100ba0000170a000240005000004be00e9ff07005a
:100bb0000003be000405be000200be00e5ff070002
:100bc000844f7500000006000200be006450e10082
:100bd000050036006420e100020036000968a30029
:100be00001003a000800be000160a0004f06780036
:100bf0004f05be004f04be0000000600f0ff2f00ae
:100c0000f1ff2700f9ff3700889fbe008a9fbe00d2
:100c10008c9fbe008c010700850478000005be0093
:100c20006420e10049003e006220e1000300320040
:100c3000090035000bf8a300440032000bf8a300b4
:100c4000080032001002200000408800f0ff2f0052
:100c5000f1ff27003d00370001f82f0000002000c1
:100c60003a0037003d000700bdfe07000006be0049
:100c70000a00be00324f200053f3230069ff070033
:100c8000060034000c00be0034000700b4fe07006c
:100c90000006be000a00be00020037008904e90019
:100ca0000c00be002d0007003d0007002b000700d0
:100cb000acfe07000001be000c00be0006ff0700ee
:100cc0000005be000001be00350007000006be00a2
:100cd000a2f32300430d2c00a2fe0700809fbe005c
:100ce0000c00be00d2e32700d3f02b002c0007003d
:100cf0004f01be00f8fe07000006be000a01be005c
:100d0000270007000a01be0096fe07000006be008d
:100d10006148b90066ff07000005be0032082800e0
:100d2000e3952b001e0007000c01be008dfe07009e
:100d30000006be000a00be000200280013f32300d4
:100d4000170007000c01be0086fe07004f06be001c
:100d50004f05be004f04be000000060003f0230054
:100d600002000500811f78000100e00002003d0044
:100d700060001000e08018000300e00002003d0069
:100d800060011100e08119002c0107004f00e00014
:100d900002003b0060001000e08018000000060028
:100da000889fbe008a9fbe008c1f78007eff0700d0
:100db00085ff330003866c006450e100240032009c
:100dc0006420e100270032006150e100220032007f
:100dd0006120e100210032008b854200eb07b10069
:100de0000134b800003ab8000804420089844a007f
:100df000013ab8000030b8008880400009014a007c
:100e000004003300000040008180480002014900d6
:100e10008b05e900c909dd00830170000100320083
:100e200013002000c814de004814dd004709de006e
:100e30001200b200c808de00088470001fff07001f
:100e400001f0a1000cf0a70001f0a00067ff37003f
:100e50006120e10069ff32000801be000200be000f
:100e6000f7ff37006150e100fcff3a0063ff3700f5
:100e70000c00fa00889fbe008a9fbe008c9fbe00b7
:100e800049ff07000206be00840578000200be008c
:100e9000020020005b01070005003a008b02b3004e
:100ea000120020005701070001003a00f8856d008c
:100eb0000c01be00c60007000800be009b00320007
:100ec0000b08a3009e003a000df0a7000be0a00065
:100ed00009f0a7000bf0a00009f0a1000801be0076
:100ee000bb0007000bf0a6009500320001003c009b
:100ef0000bd0a0008acf7500b20033006000b800ac
:100f00006250e10099003900a1003e000b28a300c7
:100f1000a2003a000bf8a300060032000b58a30011
:100f2000a70032000801be00a90007000800be00ab
:100f3000940032000800be00c30007000004be0099
:100f4000050578000bf0a7000b30a6000bf0a10000
:100f50005b079800324f200053f32300affe0700d9
:100f600005003d000800be0012002000a601070099
:100f70000004be000a05e9004a0798006150b90064
:100f8000cbfe0700008fbe000c01be0084ff0700ef
:100f9000a6fe0700300798000100e00002003d00b7
:100fa00060001000e0801800f2ff2700820f500060
:100fb000e08f580064003e000c00be009bfe07005e
:100fc00020079800f2072000820f5000e08f5800a1
:100fd00005003c0012f82f00f3ff2f00820f500095
:100fe000838f580009003d000a00e0000300320032
:100ff00001003c000201ea00020578006000b80030
:10100000200798003a079800190037003e0090002a
:101010006100b900a6fe0700809fbe000c00be0064
:101020004109dd004811de007208b100f50007003b
:101030000005be001e01be0059ff07004f01be00a3
:10104000c7fd0700809fbe000c00be000a01be0065
:10105000c3fd07001e01be0051ff07004f01be0087
:10106000c0fd07008221270013f323004cff070077
:101070000005be002e0090006100b9008cfe070044
:1010800001f0a2000c01be00b6fd07000006be0084
:101090000800be00dcfe07000c01be0040ff070098
:1010a0000a01be00affd0700809fbe004a00070096
:1010b0002e0590000af0a7000a05ea000500370097
:1010c0000800be000801be0035ff07000004be0096
:1010d0000c00be000801be000a00a70030ff070098
:1010e0000006be000a05d100f5ff3a005e0190003f
:1010f00002e0a600030037000001be003600070032
:10110000f5fd07000004be004f00be005b000700b5
:101110000801be0022ff07003e0190003a010700cf
:10112000de0590000bf0a70001f0a2004f06be0004
:101130004f05be004f04be000080fa00000006000c
:1011400025000700f9ff3700270007006000b800fe
:101150000bd0a7000bc0a0000be0a7000bc0a200a3
:101160000bc0a70001f82700f0ff37000df8a3001f
:10117000020032001e000700190007000bf8a30050
:10118000eaff32000b30a70001f0a200e7ff3700b2
:101190000df8a300f9ff3a00f7ff37000801be0081
:1011a0000b000700e6ff320001003c000df0a2003a
:1011b0006000b8000df0a70009000700dbff370052
:1011c0000b000700f1ff2700f0ff2f00d7ff3700cb
:1011d0000100070011fe370001f8230000000500a0
:1011e00001f8270000000500200220000100370060
:1011f0001002200000408800000006006022b800b5
:10120000060220000000d0008180d2000482d200bb
:101210008582d2000000a0000202520083825a00a0
:10122000030031000202420083824a000000a10054
:101230000603e900f3ff3a0000000600efff070095
:101240000400be00000006000003be0041fe0700cf
:101250006220e100020032000600be000500050029
:10126000e507b100f107b20004f0230084807000ac
:1012700007f0a70001f0a00024000500889fbe0031
:101280008a9fbe008c9fbe000004be0031fe070096
:101290000800be006420e10048003e005500320016
:1012a00072212700132b2400defd070047003c00bd
:1012b0000800be00c2ec2800e32c2c00d7fd07007c
:1012c000470035000800be0001f0a1000200200028
:1012d00003382300d1fd0700430035000800be009d
:1012e000b2a32a0083fb2300adfe0700020020000a
:1012f00003f0230001f0a70003f0a00019fd070090
:10130000cafd07000005be00e9fd070001f0a200cc
:101310000006be000200280013f32300a0fe070011
:101320000801be000ffd0700809fbe000c00be003c
:1013300032082800e3952b0099fe07004f01be00fc
:1013400008fd07000006be000001be0094fe070075
:10135000809fbe004241250083b8230090fe070015
:101360000200200003e82300fefc07000c01be0081
:101370008bfe07000006be004f00be00f2f92b00f6
:10138000c3d4230086fe07000200200003f02300e0
:10139000f4fc07000c01be00f1fc07000001be00d8
:1013a0000c00be004cfd07000200200003f02300eb
:1013b000ecfc070061014500930007004f06be00ea
:1013c0004f05be004f04be000000060001f82700d4
:1013d000000020002202200002408800f7ff3700b2
:1013e0006000b800fbff370001f823000000200078
:1013f000f2ff370009f8a300f0ff32006000b800e8
:10140000eeff3700889fbe008a9fbe000003be002b
:10141000d0fd07008505780082815200020020007f
:101420006220e10004003a00f307b1000400350037
:101430007718e100040035000600be0014003700f4
:101440006000b8000f003700f50f2000faff2f00f2
:101450008502d1000a85d3008301e900fcff3b002f
:101460008184620000046500890f7400f2ff32007d
:101470008582ea000a85ea00818462000004650032
:101480008efd070007f0a70001f0a0000081eb002f
:101490000200e0004f05be004f04be000000060041
:1014a000889fbe008a9fbe00841f7800befd070093
:1014b0004f00780011003300f0ff2f00838f6c0085
:1014c00006003b00040565000a00a700080037007d
:1014d00009f0a6001000200008003700820f540019
:1014e000838f5c00030039001000200001003e00e3
:1014f0000000200009f0a7000000ea004f05be0030
:101500004f04be000000e00000000600881f7800c5
:10151000030478000300e00007003d0060001000b5
:10152000e080180060011900e081190002003b0012
:1015300001f02d00030037000400070008f0a700a9
:1015400001f0a0004f04780000000600889fbe0054
:101550008a9fbe0000827000040271000482710044
:10156000260032000004be000200be006011b80078
:101570006b092000950220000182cf000a0039008b
:101580000541b1000082cf00070039000541b100dc
:101590000982cf00040039000541b1000882cf0064
:1015a000010039000541b10005425200120032002d
:1015b0000a003b0082817100610164008100d1005a
:1015c0000080d3008984d3000884d3008b05e80011
:1015d0000442e800f7ff3a0007003700080444001f
:1015e00089844c0000004800818048008b05e90098
:1015f0000442e900f9ff3a0030fd07004f05be0044
:101600004f04be00000006000003be0051fd0700ad
:101610006220e100020032000600be000000060069
:1016200085024100e30f20000328e10005003c0093
:10163000a3fe2f000328e10007003d000500200065
:1016400001003700f50f2000200220000040880034
:101650006000b800080037001300200083815200aa
:1016600005003d008100d1000080d3008301e80027
:10167000fcff3a0005002000c72add00f107b20098
:101680008580700007f0a70001f0a00000000600b0
:101690000002780002003700315a78000201e900a8
:1016a000e00f5100fcff3a00000006000c00fa00b9
:1016b000889fbe0000047800f4ff2700d4bf9f007d
:1016c0008004eb0099bf9f0088bf9f00a8bf9f00c8
:1016d000240c2000b4bf9f0078815700cfb0970042
:1016e00070805700c40007000fba9700094a7800bd
:1016f0000fba9700080052004f04be000080fa00a5
:10170000000006000800fa00889fbe008a9fbe0005
:101710000084fb00d4c6b300844f50003400360070
:101720004b062000110009000b84d80081057800c9
:10173000720040004300dd00090b240000804400db
:101740006022b8000600200007fe23005001be0002
:101750004000be006e0707000002be000203be008c
:1017600084bf9f0095bf9f00a6bf9f00b7bf9f008b
:10177000aa002000110009008a85d80080057800a1
:10178000e9854500c35ddd008b8544003b02be005a
:101790002b03be000fb897009fb897002fb9970092
:1017a000bfb997005a0707000002be000203be003f
:1017b00084bf9f0095bf9f00a6bf9f00b7bf9f003b
:1017c000110009000a84d800010478004344dd00b8
:1017d000888444003902be002903be000fb8970078
:1017e0009fb897002fb99700bfb997001d00370029
:1017f000ea4f500013003600aa0020001100090033
:101800000a84d80001057800690440004344dd00e3
:10181000090b2400088444006022b8000600200060
:1018200007fe23003800be002801be00380707006d
:101830004355dd008a8444003902be002903be00fe
:10184000080037004344dd00040b24000804420074
:101850006022b8000600200007fe23003800be000a
:101860002801be002a0707004f05be004f04be0036
:101870000080fa00000006000800fa00889fbe0001
:101880008a9fbe00d4c6b300e04f500022003d0046
:101890000040ea000004fb00844f50000a003400be
:1018a00044062000110009000404d800a90020000b
:1018b000110009008900d800e9004000c308dd00dc
:1018c0000a0b240020003700ea4f50000f003400bc
:1018d000a4002000110009000404d80069004000a1
:1018e0004300dd00040b240000004200430cdd0037
:1018f000080242005403be004402be005001be0074
:101900004000be0002070700370037004344dd00f7
:10191000040b2400310037000004fb00844f50000a
:101920002300340044062000110009000404d800fc
:10193000a9002000110009008900d800e90040003a
:10194000c308dd000a002400810045003102be000a
:101950002103be008b0920008a8545003b00be00a4
:101960002b01be00ea0607000002be000203be0013
:1019700084bf9f0095bf9f00a6bf9f00b7bf9f0079
:10198000110009000904d800010478004344dd0077
:10199000080545003a02be002a03be000fb89700b2
:1019a0009fb897002fb99700bfb99700d5ff3700b0
:1019b000ea4f500007003400a40020001100090085
:1019c0000404d800690040004300dd000400240046
:1019d000c5ff37004344dd00040024000804420032
:1019e0003800be002801be004f05be004f04be00f7
:1019f0000080fa00000006002f04b000889fbe009f
:101a00008a9fbe008c9fbe008e1f7800a0af9f00f3
:101a1000c1a79f00b2af9f006000b8006011b8007e
:101a2000d0a79f00e1a79f00f2a79f0083af9f0070
:101a30008006eb002f043700cfa097008100e8005c
:101a4000c1a79f0054c2b300844f500006003a0063
:101a5000010378000006eb0000c3b30007c2b30027
:101a6000b1c2b300070037000000fb00afa8970029
:101a70002c040700e10f40001e0432008d06e80030
:101a80001c04370006027800b6427800d2c2b300c8
:101a900082cf52000900320005003c0087cf52007f
:101aa0000800320081cf52000c003a0007003700d6
:101ab00080cf520009003a00060037000c30a00029
:101ac000f0ff37000c00a000eeff37000c10a00064
:101ad000ecff37000c20a000eaff3700620366002d
:101ae000010032000c00a100680366000100320012
:101af0000c20a1000503fb000603b100e90f530011
:101b00000d003e0084027800070020006a3bb90007
:101b10003502fb000403b100860342000502780091
:101b20001503fb000603b100e90f5300f7ff360071
:101b300097af9f000a0037000003eb0096af9f00ad
:101b4000a6c2b30086cf520005003a00bfab970093
:101b500047007800b7af9f0090af9f000402e800f5
:101b6000e5c2b30094cf120017003a000ce0a000c9
:101b7000e4c25200d4cf1200030032008402780085
:101b800007002000090037003fa99700c201780034
:101b9000b2af9f0083b79f000402e800c6c6b3003f
:101ba0000d0037006a38b900800343000502780051
:101bb0003503fb000603b100e90f5300f9ff3600bf
:101bc00087b79f00f5ff37000cc0a0008002eb0034
:101bd00085b79f00f1ff370084037800b742780093
:101be0000702780086cf52002d003200c7a79f0061
:101bf000c4c6b30084cf520014003c0068425200b7
:101c000084cf52002400320009003c006c42520094
:101c100084cf52002e0032006b42420084cf52002b
:101c200071003200e0cf5200b70332008e0037005f
:101c300064c6b30084cf52001f00320063424200ea
:101c400084cf520088003a001300370034c7b30035
:101c500084cf52002200320007003c006442520050
:101c600084cf5200170032000442e80084cf5200b3
:101c70007d003a001600370054c7b30084cf5200ed
:101c80007e0032006342420084cf520076003a0068
:101c9000a5779f0010003700a5779f0079003700d7
:101ca000f003660005012000010032000500280055
:101cb00005067600c8ff3700a5779f000ca0a0009e
:101cc00070003700a5779f000c60a0006d00370002
:101cd000a5779f000c50a0000c70a0006900370091
:101ce000a5779f003fab970046027800b6af9f00f4
:101cf00004047800e00f520001003a00287e24001e
:101d0000880278000002eb00010037000402e800be
:101d100065437a00e04f5300fcff3a0084047800ea
:101d20008fb39700e08f530003003200898f530078
:101d300001003100870478000007eb001fa897001e
:101d4000890f500001003600090750006806660040
:101d500014003a0007003700afa8970000022000e7
:101d600070030700e10f4000010032008d06e8001b
:101d70000e07e900e00f5700f7ff3a000087eb007d
:101d800008003700080278003400fb0004047800e3
:101d9000afa8970063030700e10f40000100320085
:101da0008d06e800090278008404e900e00f520083
:101db000f4ff3a00e00f56004e03320007003700f0
:101dc000afa897000002200056030700e10f400073
:101dd000010032008d06e8000e07e900e00f570011
:101de000f7ff3a0043033700bfa89700410278008d
:101df000b1af9f0004007800cf80de0001017800c1
:101e000082017800c0af9f00d1af9f00e2af9f007a
:101e1000f3af9f004800de00480add0000007200ba
:101e2000a0779f00f002660009003200e04f5000ea
:101e300007003200e14f400005003200b0779f00fc
:101e40008fda9700c5779f00290020000300370034
:101e50000fdb9700b6779f001900200038fb2f009a
:101e60000f044400aeff3700a5779f0028fb2f002a
:101e70000f04440019002000a9ff3700a5779f0038
:101e80000c0cb3000470200004026600ba0132009a
:101e900004002100040266000200320067002000f6
:101ea00087b79f0070026600090032003faa9700c2
:101eb0004401be004400be00b4af9f00c0af9f000d
:101ec000d1af9f00e2af9f00f3af9f000a00370041
:101ed000bfaa97004500be00b5af9f00f4040700fd
:101ee0000002be000203be00c4af9f00d5af9f003a
:101ef000e6af9f00f7af9f006022b8006033b800e4
:101f00004fa89700dfa897006fa99700ffa9970037
:101f100039040700e00f50000a003d004fa8970069
:101f2000dfa897006fa99700ffa9970003f0a20010
:101f3000c0af9f00d1af9f00e2af9f00f3af9f0003
:101f40003c00b3000002eb00b49f9f006022b80089
:101f50006033b8004fa89700dfa897006fa99700db
:101f6000ffa9970088040700e00f500035003200f9
:101f70004fa89700dfa897006fa99700ffa99700c7
:101f8000da05070062fb2f000f014100430507003f
:101f90003f9897000000e9006300b900a40020000a
:101fa000110009000400d800b09f9f00e00f50000e
:101fb00002003d000000e900b09f9f003f9c970099
:101fc0000840ea002cfe07004faa9700dfaa9700fe
:101fd0006fab9700ffab97004d0507000002be00f6
:101fe0000203be00d4a79f00e5a79f00f6a79f00ad
:101ff00087af9f006022b8000600200007ff230083
:10200000fd030700e00f500002003d000804e90056
:102010000b0037006022b8000600200047022400b1
:102020005fa09700efa097007fa197008fa997006e
:10203000f6030700e00f5000020035000804e80036
:10204000b89f9f008fb29700f88f52000f003c009e
:1020500005407800abfd07000002be000203be0091
:102060004fa89700dfa897006fa99700ffa99700d6
:10207000640307000002be000203be00c4af9f005d
:10208000d5af9f00e6af9f00f7af9f003f9c970042
:10209000e90f540015003c006022b8006033b8001e
:1020a0004fa89700dfa897006fa99700ffa9970096
:1020b00035040700e00f5000320032004fa89700af
:1020c000dfa897006fa99700ffa997009704070062
:1020d000e00f5000e08f5800e00f5900e08f5900ea
:1020e00028003a00e10f54002600340004002000cc
:1020f00005002e00b6e02200170124005fa0970023
:10210000efa097007fa197008fa99700ba0307005f
:10211000e00f500002003d0073045400010037003e
:1021200072045400b89f9f006f709700d2fd0700a3
:102130000002be000203be00d4a79f00e5a79f00d7
:10214000f6a79f0087af9f004fa89700dfa89700d2
:102150006fa99700ffa99700b10307007304070058
:102160000205be000004be006000b8006011b800a7
:10217000c0af9f00d1af9f00e2af9f00f3af9f00c1
:10218000170037004fa89700dfa897006fa99700a6
:10219000ffa99700650407000205be000004be0009
:1021a000930407000002be000203be004fa8970080
:1021b000dfa897006fa99700ffa9970049050700be
:1021c0000002be000203be00c4af9f00d5af9f0057
:1021d000e6af9f00f7af9f000002eb00b49f9f00a7
:1021e0008116240010c0b300080037003102be0081
:1021f0003103be000440e10005c8e10006d0e10063
:1022000007d8e100030039000040e800f44f500017
:10221000f6ff3a00a0779f003f9a97009faa970089
:10222000048252000fb39700060252000000fb0028
:1022300000075200e00f5300010032000e07e900d2
:1022400063026600010032000e07e90064026600c6
:102250001d003200e202660061026600e08f52005b
:1022600006003200b0022000e00f520001003200f0
:102270000080e800afa8970004003700e00f52008c
:102280000e003200afa897000002200025020700d0
:10229000e10f4000090032008d06e800070037001a
:1022a000afa89700000320001e020700e10f4000c6
:1022b000010032008d06e8000e07e900e00f57002c
:1022c000f7ff3c0030003700680266000a003a0061
:1022d00007003700afa89700000220001102070096
:1022e000e10f4000010032008d06e8000e07e90012
:1022f000e00f5700f7ff3c00e20266006102660053
:10230000e08f520006003200b0022000e00f5200c1
:10231000010032000080e800afa8970016003700e7
:10232000e00f520018003200afa897000002200012
:10233000110037008502fb00c32add0007162400c8
:10234000858243005503be004502be000800be0062
:102350000a01be00bb050700a40020000500200004
:102360006033b800be0507000403200000024200ed
:10237000afa8970004007800ea010700e10f4000d1
:10238000010032008d06e8002f7297008442e900b8
:10239000a5779f00e04f5200e6ff3a0008003700a3
:1023a000afa8970000032000de010700e10f400006
:1023b000010032008d06e8000804e900b89f9f0084
:1023c0003f9c9700e00f5400f5ff3c000fb09700d2
:1023d000f20f50000300340024c1b300a4779f0023
:1023e000020037008fe09700a1779f002f729700bf
:1023f0008402fb000fb197008502510095af9f004a
:10240000e04f520006003200afa89700e002200023
:10241000c4010700e10f4000010032008d06e80012
:102420002f70970014fd07000002be000203be00db
:102430004fa89700dfa897006fa99700ffa9970002
:1024400033040700b9030700220037008502fb00b0
:10245000c32add0003162400858241003500be003a
:102460002501be0080b79f0091b79f00a2b79f00d3
:10247000b3b79f000203be000002be000800be000a
:102480000a01be006f050700a4002000050020001f
:102490006033b80072050700040320000002420008
:1024a000afa89700040078009e010700e10f4000ec
:1024b000010032008d06e8000fb297009fb297002e
:1024c0002fb39700bfb397000800be000a01be00fb
:1024d000630507000205be000004be002f729700ce
:1024e0008442e900a5779f00e04f5200d7ff3a00f1
:1024f0000203be000002be009fac97000f00370031
:10250000afa8970000032000c4b79f00d5b79f0075
:10251000e6b79f00f7b79f00820107004fb2970010
:10252000dfb297006fb39700ffb39700e10f400051
:10253000010032008d06e8008904e900e08f5400b4
:10254000efff3a00680666006a013200e00f5700ac
:1025500068013400afa89700000220007101070055
:10256000e10f4000010032008d06e8000e07e9008f
:10257000f8ff3a005f0137008c027800050cb200ca
:102580002b003a00e00f560005003d00bfa8970061
:102590004105be004104be00b1af9f0017003700e7
:1025a000700266000f0032003faa97004401be008f
:1025b000b4af9f0082a79f0093a79f00840278007a
:1025c000150290004fa2de00a4a79f00b4a79f00b1
:1025d0000fa497009fa497002fa59700bfa5970071
:1025e00006003700bfab970047047800b7af9f00e5
:1025f000cfc4de00090578008a057800e00f54009a
:10260000e08f5c00e00f5d00e08f5d0023003d0087
:102610003c00b3006022b8006033b80008045200e8
:1026200089845a000a055b008b855b001b0037001c
:10263000e00f560005003d003fa897004005be0092
:102640004004be00b0af9f0014003700f0026600e7
:102650000c003200bfaa97004501be00b5af9f0035
:10266000c29f9f00d39f9f00e49f9f00f49f9f0005
:102670004f9c9700df9c97006f9d9700ff9d9700f0
:1026800006003700bfab970047047800b7af9f0044
:10269000090020000a0020000b0020000fb0970066
:1026a000e00f500009003a001100200081b79f00a0
:1026b000e00f5400e08f5c00e00f5d00e08f5d00f4
:1026c000020032000001eb0082b79f008c0178000d
:1026d000030cb200c3af9f0004042000848f51009c
:1026e0002c00320003003c00e08f51000800320053
:1026f0003c00370004082000cfaa9700848f5200c6
:1027000010003200040c2000848f520035003a0083
:102710008516240014c0b3003500be003501be008c
:102720000040e10001c8e10002d0e10003d8e1006f
:102730002b0039000442e800f44f5200f6ff3a0043
:102740002700370014c0b300000120000100200062
:102750006011b8000040e10001c8e10002d0e100d2
:1027600003d8e1001e003900460020000000d00020
:102770008180d2000281d2008381d2000603e90069
:10278000faff3a000442e800f04f5200f1ff3a002d
:102790001300370014c0b3008000200001002000a7
:1027a0006011b8000040e10001c8e10002d0e10082
:1027b00003d8e1000a003900370020000000d000f3
:1027c0008180d2000281d2008381d2008703e90098
:1027d000faff3a000442e800f54f5200f1ff3a00d8
:1027e000a4779f002f7097000002fb008fb0970026
:1027f000810f520002003d00a1779f0004003700c6
:102800000fb19700840f510001003d0084b79f0075
:102810009fa99700e08f5100040032006302660018
:10282000020032008301e90093af9f0004002400fe
:1028300004026600090032001faa97008fb29700b9
:10284000850f5200030034000502520094af9f0030
:10285000020037000003eb0096af9f00af739700b4
:102860000702fb000007eb001fa89700840f500031
:102870000100340004075000640266001c003200ae
:10288000e202660061026600e08f5200060032003c
:10289000b0022000e00f5200010032000080e8008a
:1028a000afa8970004003700e00f52000600320086
:1028b000afa89700000220009a000700e10f400037
:1028c000010032008d06e800e00f5700750032006d
:1028d000afa897000003200092000700e10f40001e
:1028e000010032008d06e8000e07e900f6ff370010
:1028f000e00f57000a0032006802660008003a0044
:10290000afa897000002200086000700e10f4000fa
:10291000010032008d06e8000e07e900f8ff3a00da
:10292000e202660061026600e08f5200060032009b
:10293000b0022000e00f5200010032000080e800e9
:10294000afa8970004003700e00f52005500320096
:10295000afa897000002200072000700e10f4000be
:10296000500032008d06e8004e0037008fb097000f
:102970008100e90081b79f004fa997000304200060
:10298000830f51003000320003003c00e00f510083
:10299000080032003b00370004082000cfaa97004f
:1029a000848f520014003200040c2000848f5200e7
:1029b00034003a000fb397004332dd0007162400bd
:1029c000070242005403be004402be000800be00dd
:1029d0000a01be001b040700a4002000050020001f
:1029e0006033b8001e0407000cc3b3000c4640005f
:1029f000ac779f0023003700147d24001fa89700a8
:102a0000e00f500001003200047c24008fb09700da
:102a1000c20add000800be000a01be008502e9000e
:102a2000050033008301d1000281d3008180d300ef
:102a30000080d300f9ff37006f0060006440780029
:102a4000a0779f000f0037000fb197006312b90005
:102a50000800be000a01be00040678000c06e9006a
:102a6000050033008301d1000281d3008180d300af
:102a70000080d300f9ff3700674260000443b000d4
:102a8000a4779f00af7097000100fb00afa89700ec
:102a900024000700e10f4000060032008d06e80028
:102aa000040037000c0178000202b20092af9f00d0
:102ab0008cbf9f008fb19700e08f5100abff3a00b1
:102ac0000fbe9700680666000a003200e00f57004c
:102ad00008003400afa89700000220001100070092
:102ae000e10f4000010032008d06e8000e07e9000a
:102af000f8ff3a004fa2970014407800a0779f009b
:102b0000e04f5000ccfb3a000d0078004f077800f2
:102b10004f06be004f05be004f04be002f04b1009b
:102b200000000600889fbe00010478003802900073
:102b3000e20262008084eb003b0032000403780074
:102b40000620b2009802900002003a00e08f520086
:102b500035003a000490a000340498008004780006
:102b6000f90fb200e08f520002003a00a802900074
:102b7000050c7800ea8f540005003a000408b20002
:102b800003003a0088007800d0002000e5ff07002d
:102b900018029000d8029000850f52000b003200fe
:102ba0000402e8001404980018027800094a78002a
:102bb000040ce80015c0b300a47f2400054a780087
:102bc000ea8f540018003a000500370088007800aa
:102bd00009407800170007008004780012003700d1
:102be000380290000410b2000f003200180190006b
:102bf000a8009000480090005200070018029000c2
:102c0000840f500004003200380290000403b30027
:102c1000340498008084eb000002eb001404980058
:102c200028029000040c7800090078004f04be00d0
:102c3000000006000200fa00889fbe00a0ff9f006f
:102c40000104780038029000840278000504b20084
:102c5000020032000000fb0035003700e202620093
:102c600005003a000403b3003404980015049800ea
:102c70000080eb002e003700d8049000e08f540055
:102c800006003a0012002000e6805700480090003d
:102c90002c0007001904980023003700a8029000b8
:102ca000e08f520008003a00d57f240025049800e8
:102cb000050c7800250020005504980015049800a4
:102cc0000430a0003404980018019000a80090007f
:102cd000480090001b000700280290008082eb0053
:102ce00015049800affa9700054a7800040ce80034
:102cf0002ffa9700ea4f52000b003a00380290007a
:102d00000410b2000800320018019000a8009000e2
:102d1000480090000b0007000002eb00140498002c
:102d2000a8029000050c78002ffa97000400fb0021
:102d30004f04be000080fa000000060000c0da0068
:102d4000000006000a00fa00e20f500022003e00d8
:102d500034118200e10f5200060032008723200068
:102d6000462320002423200005232000e08f530069
:102d700004003a008722200046222000242220005e
:102d800005222000000028001500600003003a0022
:102d9000800b780007002800958a7300054020000a
:102da0009482620001003a0014a0a0008202780020
:102db00006003700940378000710b200fdff3200d0
:102dc000b103fb00070b78008502e900e08f520099
:102dd000f8ff3a000800370034002000b4bf9f001d
:102de000c0bf9f00d1bf9f00e2bf9f006a80570015
:102df000d2ff07006fb99700020078000080fa0048
:102e0000000006002800fa00889fbe008a9fbe00ce
:102e10008c9fbe0007067800878669000c003b0087
:102e2000030478008704780008f0a10009f0a100ed
:102e3000840f5000858f5800860f5900890f5c0061
:102e4000030033000cf0a20001003a000cf0a100d6
:102e5000fe0007006400e1005f00320078014700d7
:102e60006408e100610032006c014700748557007e
:102e70003200be001201be003a04be001a05be00b8
:102e80001e039000be0a90008503530006003d001b
:102e90000004fd008104fd000205fd008305fd0026
:102ea0008703ea00050378000df8a3000400320050
:102eb00060041400e0841c0060051d00e0851d0016
:102ec0006022b8007d0320000d38e1008006eb0091
:102ed0000b0039004433dd00f300b20083017300be
:102ee00039003700848272000d027800e106640028
:102ef0008b85d1000a85d3008984d3000884d30050
:102f00008703e900f7ff3b00080040008980480084
:102f10000a0149008b81490004003b006000100059
:102f2000e080180060011900e08119000358a30037
:102f3000090032008d82720084827200610260009a
:102f40008301d1000281d3008180d3000080d300af
:102f50000603e8001b0037000348a30017003a00ef
:102f60000600e000170034000603e9000d00a3008e
:102f70000000480081804800020149008381490027
:102f80000348a3000f003a000600e00009003400e7
:102f90000603e9000000400081804800020149006a
:102fa0008381490001003a000003eb000348a300bd
:102fb000f5ff32006022b800020037008482720000
:102fc000618266007500070003f0a1000cf0a70005
:102fd00003f0a000b1003700640147006408e1007d
:102fe00002003a000df8a300a9003a003200be002a
:102ff0001201be00a90037008f1fd100fa0207009e
:103000008f87e9000000e00000000600809feb00d1
:10301000f50207008f87e9000000e00000000600cd
:103020002800fa00889fbe008a9fbe008c9fbe00c9
:1030300003866b00850007006400e1004400320055
:103040006408e1004a0032006100e10046003200fd
:103050006108e10049003200ec0647006000b8005a
:103060003d02be003d03be00f48657006011b8006b
:103070003d04be003d05be007d0320000b0037006f
:103080000000a0008d06e900130032000402420097
:1030900085824a0006034b0087834b0000004000f6
:1030a00081804800020149008381490008025200e2
:1030b00089825a000a035b008b835b00f0ff3b00b0
:1030c0000802420089824a000a034b008b834b00ae
:1030d0008d06e900edff3a0084827200868272005c
:1030e000f707b2008782720001003200150020004d
:1030f0001e0490003e0b900006035400e63fb00013
:103100000368a300070032000000a7000500a0002c
:103110008301d1000281d3008180d3000080d300dd
:103120000603e8008301d1000281d3008180d3002f
:103130000080d3000002eb000482d20017000700d9
:1031400003f0a1000cf0a70003f0a000530037002b
:10315000640247006408e1004d0032003400be0004
:103160003401be00f6ff37006108e100480032007c
:103170006011b8006000b800f1ff370003ff2700be
:1031800002002000fbff3700801feb0096020700c3
:103190008f87e9000000e000000006001800200012
:1031a00057002000080453000d003d0006002000d9
:1031b00097fc2f000740e1001e003400848272005b
:1031c000610260008301d1000281d3008180d300bd
:1031d0000080d3000804e800f8ff3a004700200010
:1031e0006104600005047400040464000d003200f2
:1031f00061004000e080480060014900e081490032
:1032000003b8a500070032000603e8006538e100b6
:1032100004003a008301d1000281d3008180d300f1
:103220000080d300f87f20000830e1000300350063
:10323000080378006000b8006011b8004433dd0076
:10324000f300b20083017300000006006804470029
:103250000294be000094be00fc0447008694be00a9
:103260008494be0009007800a802070008007800d6
:10327000a602070099007800814f70000b003b0008
:103280000800be00810207004f00b10003003700b4
:10329000f3ff2700f2ff2f006110b9004f06be00b8
:1032a0004f05be004f04be000080fa00000006007b
:1032b0008103780027f607000001be006000b80017
:1032c0000478a30013003a006220e10015003e00dc
:1032d0000d0039008301d1000281d3008180d30029
:1032e0008301d1000281d3008180d3008301d1000a
:1032f0000281d3008180d3000538b000c42add00ec
:10330000f300b2008381720007f0a70003f0a00071
:1033100000000600f3ff2700f2ff2f006110b90044
:10332000fbff370003ff2700f7ff37001400fa0008
:10333000889fbe008a9fbe008c9fbe000004be0016
:103340000205be00680047000a90be000890be005b
:103350006e0207000070a7000bf0a1000bf8a3009d
:1033600020003a009e0990000e099000fe00900097
:103370006e0090009e029000344320008482520030
:10338000c6ff32000a003c00b4fc2f000428e10014
:10339000140034008301d1000281d3008180d30066
:1033a0000080d3008502e800faff3a00bbff370037
:1033b000b40020000428e10007003c0000004000a9
:1033c0008180480002014900838149008502e900ab
:1033d000faff3a00b1ff3700030028000200200086
:1033e000010037006011b8006000b800abff370083
:1033f000889fbe0000827000040271000482710088
:103400002400320036432000c50020008383cf0013
:103410000a0039000541b1008283cf00070039005e
:103420000541b1008183cf00040039000541b1009e
:103430008083cf00010039000541b10085c35300ee
:103440006022b800120032000a003b008482720041
:10345000610260008301d1000281d3008180d3002a
:103460000080d3000603e8008743e800f7ff3a0036
:103470000700370000004000818048000201490039
:10348000838149000603e9008743e900f9ff3a0018
:1034900042ff07004f04be00000006001400fa00bf
:1034a000889fbe008a9fbe008c9fbe0004067800e5
:1034b0000004be000205be00680047000a90be007e
:1034c0000890be00110207006200e1000800be0083
:1034d0000a01be00040020000b003a001e0290000a
:1034e000e43fb1006e009000fe0090000e099000d5
:1034f0009e099000f300b20005fe23008581710053
:103500000bf0a70003f0a000040e780063ff370063
:103510002800fa00889fbe008a9fbe008c9fbe00d4
:1035200003866b0049ff07000028a30064003a00ef
:103530000128a30067003a000008a30062003a00d7
:103540000108a30065003a001e009000be0890002c
:1035500081064000ed3fb100f4805700ee0190007d
:10356000111ab8008e099000311bb8009e09900016
:10357000311cb800511db800f48557004600070003
:10358000fe0190003a0007008b85e8003e0007002e
:103590008e09900040000700ee0190003400070003
:1035a0008b85e800380007008e0990004000070076
:1035b0009e0990001b18b800890440000a85480045
:1035c000fe019000340007008b85e80038000700fa
:1035d000ee019000300007008e0990001b18b80023
:1035e000890440000a8548000a98a30008003a00b0
:1035f0000402420085824a0006034b0087834b0089
:1036000008044c0089844c000a054d008d06e90031
:1036100084827200850273004c3add0085027200dc
:103620000100320015002000443ade001400b20010
:103630004538de00cb45dd000b007000c540de00e4
:10364000cb4ddd008b8070004549de00cb55dd00a1
:103650000b017100c551de000d037800cffe07009d
:1036600003f0a1000cf0a70003f0a0000bff37004f
:103670001b18b8008502400006834800e0834b0019
:1036800060044c00070037001b18b8000603400018
:1036900087834800faff37001b18b80087034000f3
:1036a00008844800e0844c0060054d0000000600de
:1036b0001b18b8000804400089844800faff37004e
:1036c0000108a300f2fe3a005800be005801be00f7
:1036d000e3ff37000008a300edfe3a00090478007c
:1036e000f9ff370007f0a200c6fd37001400fa000a
:1036f000889fbe008a9fbe008c9fbe000005be0052
:103700000206be00680047000c90be000a90be0092
:103710007e0107006400e1001a00320016003e003e
:103720006100e1001a0032006e049000fe04900077
:103730000e0b90009e0b90006011b8009e0590004b
:103740000b38b100d5012000828171006101640055
:103750008703d1000683d3008984d3000884d30073
:103760008502e900f8ff3a00d4f407000df0a70045
:1037700001f0a000c9fe3700f1ff2700f0ff2f0085
:10378000c6fe370001f8270000002000f7ff3700d1
:103790006000b800f5ff3700889fbe008a9fbe001a
:1037a0003004be002005be000404440085844c00a3
:1037b00006054d0087854d000898be000a90be00a2
:1037c0000440e10005c8e10006d0e10007d8e100af
:1037d00002003100680040001008e8004f05be00fc
:1037e0004f04be00000006001000fa00889fbe00d3
:1037f0008a9fbe000605be000404be003002be0063
:103800002003be00c4b79f00d5b79f00e6b79f0056
:10381000f7b79f000802520089825a000a035b0032
:103820008b835b0084bf9f0095bf9f00a6bf9f0056
:10383000b7bf9f000498be000698be00110020008c
:103840004fb29700dfb297006fb39700ffb39700b6
:103850000820e10009a8e1000ab0e1000bb8e1008e
:10386000010039008000eb00108810004f05be00f9
:103870004f04be000080fa00000006001400fa00a9
:10388000889fbe008a9fbe008c9fbe003f0007003d
:103890000605be000404be000006eb00ccb79f0086
:1038a000bcb79f00acb79f009cb79f008cb79f0030
:1038b0000d0420004fb39700bfb29700860343006a
:1038c0002fb29700e00f530004003d003d000700b9
:1038d0000f004000b0ff0700030037003900070069
:1038e0000f004000c0ff0700cfb2970095bf9f00b8
:1038f000e08f5200090035002b0007001400200063
:10390000050020006033b800000072008180720062
:1039100002017300838173001c0007000c06e8009d
:103920008d0f5600e3ff3a001fba9700e00f5200d8
:1039300005003d000802be000a03be0000fe2f0085
:103940000f00400094ff07004faa9700e00f5200bd
:1039500008003a000fb497009fb497002fb5970066
:10396000bfb59700d8b79f00e9b79f00fab79f008f
:103970008bbf9f000c0007004f06be004f05be0026
:103980004f04be000080fa0000000600010007009e
:103990000000060090b79f00a1b79f00b2b79f003c
:1039a000c3b79f00000006000100070000000600ea
:1039b0001fb09700afb097003fb19700cfb197000d
:1039c000000006004f2bde0087037300a7b79f009f
:1039d0004f23de00858242008502730095b79f0069
:1039e000ffaa97004f2bde0004024200040273007e
:1039f00084b79f006faa97004f23de0085824200a4
:103a000085027300f5af9f00e9ff07004f18de0045
:103a10000402420000027200e4af9f00e4ff0700ce
:103a20000000400081804800020149008381490074
:103a3000d8ff07000802be000a03be0000fe2f00e8
:103a400000000600881f780018002000881f7800fa
:103a50008aff07008f87e9004f0478000000060006
:103a6000801feb0085ff07008f87e900000006003c
:103a7000889fbe008a9fbe00e00f5000e08f580074
:103a8000e00f5900e08f59000c003d006044b80081
:103a90006055b8000000540081805c0002015d00a8
:103aa00083815d00180020001500070008003d001c
:103ab000180007000004eb00050037000004eb00cd
:103ac0000f00070002003d00120007001800200050
:103ad000dcff0700e00f5400060032006022b8004f
:103ae0006033b8000000520081805a0002015b0080
:103af00083815b004f05be004f04be00000006003e
:103b0000e00f5200e08f5a00e00f5b00e08f5b0097
:103b1000000006006044b8006055b800040254007c
:103b200085825c0006035d0087835d00000006005f
:103b3000889fbe008a9fbe008c1f7800e00f500057
:103b4000e08f5800e00f5900e08f59000d003d0054
:103b50006044b8006055b8000000540081805c00eb
:103b600002015d0083815d001c0020000820e1004f
:103b700009a8e1000ab0e1000bb8e1000d003d002a
:103b8000080037000006eb00e00f5200e08f5a00fb
:103b9000e00f5b00e08f5b0006003d006044b80072
:103ba0006055b8000402540085825c0006035d0085
:103bb00087835d00aaff0700e00f56000600320071
:103bc0006022b8006033b8000000520081805a00c3
:103bd00002015b0083815b004f0678004f05be0049
:103be0004f04be0000000600889fbe008a9fbe00f2
:103bf0008c9fbe000404be000605be00809fbe0070
:103c0000829fbe002f000700040678000800be0057
:103c10000a01be002b000700840678004f03be0097
:103c20004f02be008d4f76007fb097001300330027
:103c3000f0ff2f008b8f6b0006003b000d06660027
:103c40000c00a7000a00370007f0a60010002000b3
:103c50000a003700880f5200898f5a008a0f5b00d4
:103c60008b8f5b00030039001000200001003e0034
:103c70000000200007f0a7000000ea004f06be0089
:103c80004f05be004f04be0000000600e482400065
:103c90001078a30007003200640240001178a300ee
:103ca0003400be001401be00040032000330a7003f
:103cb000000006003500be001501be000330a00064
:103cc0000000060005ff27000582610007003200a2
:103cd0000428e1000100320024000500060007006e
:103ce00001003a0044000500040805000200070036
:103cf000f9ff3a00140005006f8261008102700034
:103d000085027100850272000000060080007800c4
:103d10005002be005003be004439de00f700b2007e
:103d2000f37f200003016100090032000218e10066
:103d300016003a00850172008301730083817300cd
:103d40000008200015003a00400020001300370052
:103d500085017200830173008381730005003a00be
:103d600004a8be0006a8be00100020000b0037000b
:103d70000201e9000402420085824a0006034b006a
:103d800087834b000748a300f9ff32000740a000db
:103d900004a8be0006a8be002000200080009800f5
:083da0009200980000000600eb
:020000040000fa
:10400000ff7f000000000000ff7f000037ff00007e
:10401000fe7f00006efe0000fa7f0000a5fd00009c
:10402000f67f0000dcfc0000f17f000013fc0000c4
:10403000ea7f00004afb0000e27f000081fa0000f6
:10404000d97f0000b8f90000ce7f0000eff8000033
:10405000c27f000027f80000b57f00005ef7000077
:10406000a77f000095f60000987f0000cdf50000c6
:10407000877f000005f50000757f00003cf400001c
:10408000627f000074f300004e7f0000acf200007d
:10409000387f0000e4f10000227f00001cf10000e6
:1040a0000a7f000055f00000f07e00008def000058
:1040b000d67e0000c6ee0000ba7e0000ffed0000d4
:1040c0009d7e000038ed00007f7e000071ec000056
:1040d000607e0000abeb00003f7e0000e4ea0000e1
:1040e0001e7e00001eea0000fb7d000058e9000073
:1040f000d67d000092e80000b17d0000cde7000011
:104100008a7d000007e70000637d00004236000062
:104110003a7d00007de500000f7d0000b9e400005d
:10412000e47c0000f4e30000b77c000030e3000012
:10413000897c00006de200005a7c0000a9e10000cb
:104140002a7c0000e6e00000497b000023e000003c
:10415000c67b000061df0000927b00009ede000055
:104160005d7b0000dcdd0000277b00001bdd000024
:10417000ef7a000059dc0000b77a000099db0000fc
:104180007d7a0000d8da0000427a000018da0000d8
:10419000067a000058d90000c979000098d80000bc
:1041a0008a790000d9d700004a7900001bd70000a7
:1041b0000a7900005cd60000c87800009ed5000097
:1041c00085780000e1d400004078000024d400008d
:1041d000fb77000067d30000b4770000abd200008b
:1041e0006c770000efd100002377000034d100008d
:1041f000d976000079d000008e760000becf000096
:104200004276000004cf0000f47500004bce0000a1
:10421000a675000092cd000056750000d9cc0000b4
:104220000575000021cc0000b374000069cb0000cc
:1042300060740000b2ca00000b740000fcc90000ea
:10424000b673000046c900005f73000090c800000c
:1042500008730000dbc70000af72000027c7000032
:104260005572000073c60000fa710000c0c500005e
:104270009e7100000dc50000417100005bc400008c
:10428000e3700000a9c3000083700000f8c20000c2
:104290002370000048c20000c26f000098c10000f7
:1042a0005f6f0000e9c00000fb6e00003ac0000034
:1042b000976e00008cbf0000316e0000dfbe000072
:1042c000ca6d000032be0000626d000086bd0000b5
:1042d000f96c0000dabc00008f6c00002fbc0000fd
:1042e000246c000085bb0000b86b0000dcba000045
:1042f0004b6b000033ba0000dd6a00008bb9000090
:104300006e6a0000e3b80000fd6900003cb80000e0
:104310008c69000096b700001a690000f1b6000031
:10432000a76800004cb6000032680000a8b5000085
:10433000bd67000005b500004767000062b40000db
:10434000d0660000c0b30000576600001fb3000035
:10435000de6500007fb2000064650000dfb1000090
:10436000e964000040b100006c640000a2b00000ed
:10437000ef63000005b000007163000068af00004b
:10438000f2620000ccae00007262000031ae0000ac
:10439000f161000097ad00006f610000fdac00000e
:1043a000ec60000065ac000068600000cdab000070
:1043b000e45f000036ab00005e5f0000a0aa0000d2
:1043c000d75e00000aaa0000505e000076a9000037
:1043d000c85d0000e2a800003e5d00004fa800009c
:1043e000b45c0000bda70000295c00002ca7000001
:1043f0009d5b00009ca60000105b00000c160000f6
:10440000825a00007ea50000f459000063a4000059
:104410006459000063a40000d4580000d7a3000032
:10442000435800004ca30000b1570000c2a2000096
:104430001e57000038a200008a560000b0a10000fc
:10444000f655000029a1000060550000a2a0000060
:10445000ca5400001ca0000033540000989f0000c4
:104460009b530000149f000003530000919e000026
:10447000695200000f9e0000cf5100008e9d000089
:10448000345100000e9d0000985000008f9c0000e9
:10449000fb4f0000119c00005e4f0000949b000049
:1044a000c04e0000179b0000214e00009c9a0000a7
:1044b000814d0000229a0000e14c0000a999000003
:1044c000404c0000309900009e4b0000b99800005d
:1044d000fb4a000043980000584a0000ce970000b5
:1044e000b4490000599700000f490000e69600000b
:1044f0006a48000074960000c4470000039600005c
:104500001d470000929500007546000023950000ad
:10451000cd450000b59400002445000048940000fb
:104520007b440000dc930000d14300007193000045
:1045300026430000079300002a4700009e920000d7
:10454000ce4100003692000021410000cf910000d2
:104550007440000069910000c63f00000591000012
:10456000173f0000a1900000683e00003e90000050
:10457000b83d00007d8f0000083d00007d8f0000e9
:10458000573c00001d8f0000a53b0000bf8e0000bf
:10459000fe3a0000628e0000403a0000068e0000e5
:1045a0008d390000ab8d0000d9380000518d00001e
:1045b00025380000f88c000070370000a18c000046
:1045c000ba3600004a8c000004360000f58b00006b
:1045d0004e350000a08b0000973400004d8b00008a
:1045e000df330000fb8a000027330000aa8a0000a6
:1045f0006e3200005a8a0000b53100000c8a0000bb
:10460000fc300000be8900004230000072890000ca
:10461000872f000027890000cc2e0000dd880000d5
:10462000112e000094880000552d00004c880000d9
:10463000992c000005880000dc2b0000c0870000da
:104640001f2b00007b870000622a000038870000d3
:10465000a4290000f6860000e5280000b6860000c8
:1046600027280000768600006827000037860000b3
:10467000a8260000fa850000e8250000be8500009d
:10468000282500008385000067240000498500007c
:10469000a723000011850000e5220000d984000056
:1046a00024220000ae840000622100006e8400001d
:1046b0009f2000003a840000dd1f000007840000f6
:1046c0001a1f0000d6830000571e0000a6830000ba
:1046d000931d000077830000d01c00004983000078
:1046e0000c1c00001c830000471b0000f18200002e
:1046f000831a0000c6820000be1900009d820000df
:10470000f918000076820000331800004f82000084
:104710006e1700002a820000a81600000582000023
:10472000e2150000e28100001c150000c1810000bc
:1047300055140000a08100008f130000818100004b
:10474000c8120000638100000112000046810000d1
:104750003a1100002a81000073100000108100004f
:10476000ab0f0000f6800000e40e0000de800000c9
:104770001c0e0000c8800000540d0000b280000034
:104780008c0c00009e800000c40b00008b80000099
:10479000fb0a000079800000330a000068800000f6
:1047a0006b09000059800000a20800004b80000047
:1047b000d90700003e800000110700003280000091
:1047c00048060000278000007f0500001e800000d2
:1047d000b604000016800000ed0300000f8000000a
:1047e000240300000a8000005b0200000680000035
:1047f0009201000002800000c9000000018000005a
:10480000000000000080000037ff00000180000071
:104810006efe000002800000a5fd00000680000082
:10482000dcfc00000a80000013fc00000f80000088
:104830004afb00001680000081fa00001e80000084
:10484000b8f9000027800000eff800003280000077
:1048500027f800003e8000005ef700004b8000005b
:1048600095f6000059800000cdf50000688000003a
:1048700005f50000798000003cf400008b8000000a
:1048800074f300009e800000acf20000b2800000d3
:10489000e4f10000c88000001cf10000de80000090
:1048a00055f00000f68000008def00001081000040
:1048b000c6ee00002a810000ffed000046810000e6
:1048c00038ed00006381000071ec00008181000080
:1048d000abeb0000a0810000e4ea0000c181000011
:1048e0001eea0000e281000058e900000582000095
:1048f00092e800002a820000cde700004f8200000d
:1049000007e700007682000042e600009d8200007a
:104910007de50000c6820000b9e40000f1820000dd
:10492000f4e300001c83000030e300004983000032
:104930006de2000077830000a9e10000a68300007b
:10494000e6e00000d683000023e0000007840000ba
:1049500061df00003a8400009ede00006e840000eb
:10496000dcdd0000a38400001bdd0000d984000012
:1049700059dc00001185000099db0000498500002a
:10498000d8da00008385000018da0000be85000038
:1049900058d90000fa85000098d80000378600003a
:1049a000d9d70000768600001bd70000b68600002d
:1049b0005cd60000f68600009ed500003887000017
:1049c000e1d400007b87000024d40000c0870000f1
:1049d00067d3000005880000abd200004c880000bf
:1049e000efd100009488000034d10000dd88000081
:1049f00079d0000027890000becf00007289000036
:104a000004cf0000be8900004bce00000c8a0000dd
:104a100092cd00005a8a0000d9cc0000aa8a00007a
:104a200021cc0000fb8a000069cb00004d8b000008
:104a3000b2ca0000a08b0000fcc90000f58b00008a
:104a400046c900004a8c000090c80000a18c0000fc
:104a5000dbc70000f88c000027cd0000518d00005e
:104a600073c60000ab8d0000c0c50000068e0000bc
:104a70000dc50000628e00005bc40000bf83000013
:104a8000a9c300001d8f0000f8c200007d8f000048
:104a900048c20000dd8f000098c100003e90000079
:104aa000e9c00000a19000003ac00000059100009c
:104ab0008cbf000069910000dfbe0000cf910000b4
:104ac00032be00003692000086bd00009e920000bb
:104ad000dabc0000079300002fbc000071930000b7
:104ae00085bb0000dc930000dcba000048940000a5
:104af00033ba0000b59400008b89000023950000b4
:104b0000e3b80000929500003cb800000396000056
:104b100096b7000074960000f1b60000e69600001b
:104b20004cb6000059970000a8b50000ce970000d1
:104b300005b500004398000062b40000b998000079
:104b4000c0b30000309900001fb30000a999000015
:104b50007fb20000229a0000dfb100009c9a0000a2
:104b600040b10000179b0000a2b00000949b000021
:104b700005b00000119c000068af00008f9c000091
:104b8000ccae00000e9d000031ae00008e9d0000f6
:104b900097ad00000f9e0000fdac0000919e00004c
:104ba00065ac0000149f0000cdab0000989f000092
:104bb00036ab00001ca00000a0aa0000a2a00000cc
:104bc0000aaa000029a1000076a90000b0a10000f7
:104bd000e2a8000038a200004fa80000c2a2000016
:104be000bda700004ca300002ca70000d7a3000025
:104bf0009ca6000063a400000ca60000f0a4000026
:104c00007ea500007ea50000f0a400000ca6000018
:104c100063a400009ca60000d7a300002ca70000fe
:104c20004ca30000bda70000c2a200004fa80000d6
:104c300038a20000e2a80000b0a1000076a90000a0
:104c400029a100000aaa0000a2a00000a0aa00005a
:104c50001ca0000036ab0000989f0000cdab000008
:104c6000149f000065ac0000919e0000fdac0000a8
:104c70000f9e000097ad00008e9d000031ae000039
:104c80000e9d0000ccae00008f9c000068af0000bd
:104c9000119c000005b00000949b0000a2b0000031
:104ca000179b000040b100009c9a0000dfb100009b
:104cb000229a00007fb20000a99900001fb30000f3
:104cc00030990000c0b30000b998000062b4000041
:104cd0004398000005b50000ce970000a8b500007d
:104ce000599700004cb60000e6960000f1b60000af
:104cf0007496000096b70000039600003cb80000d0
:104d000092950000e3b80000239500008bb90000e5
:104d1000b594000033ba000048940000dcba0000eb
:104d2000dc93000085bb000071930000cfb200004f
:104d300007930000dabc00009e92000086bd0000d0
:104d40003692000032be0000cf910000dfbe0000ae
:104d5000699100008cbf0000059100003ac000007e
:104d6000a1900000e9c000003e90000098c1000042
:104d7000dd8f000048c200007d8f0000f8c20000f7
:104d80001d8f0000a9c30000bf8e00005bc400009f
:104d9000628e00000dc50000068e0000c0c5000038
:104da000abbd000073c60000518d000027c7000096
:104db00027c70000dbc70000a18c000090c80000de
:104dc0004a8c000046c90000f58b0000fcc90000b9
:104dd000a08b0000b2ca00004d8b000069cb000020
:104de000fb8a000021cc0000aa8a0000d9cc000078
:104df0005a8a000092cd00000c8a00004bce0000c1
:104e0000be89000004cf000072890000becf000000
:104e10002789000079d00000dd88000034d100002f
:104e200094880000efd100004c880000abd2000055
:104e30000588000067d30000c087000024d400006c
:104e40007b870000e1d40000388700009ed5000079
:104e5000f68600005cd60000b68600001bd7000076
:104e600076860000d9d700003786000098d8000069
:104e7000fa85000058d90000be85000018da00004d
:104e800083850000d8da00004985000099db000026
:104e90001185000059dc0000d98400001bdd0000f2
:104ea000a3840000dcdd00006e8400009ede0000b4
:104eb0003a84000061df00000784000023e0000066
:104ec000d6830000e6e00000a6830000a9e1000010
:104ed000778300006de200004983000030e30000aa
:104ee0001c830000f4e30000f1820000b9e400003c
:104ef000c68200007de500009d82000042e60000c1
:104f00007682000007e700004f820000cde7000036
:104f10002a82000092e800000582000058e90000a3
:104f2000e28100001eea0000c1810000e4ea000006
:104f3000a0810000abeb00008181000071ec00005b
:104f40006381000038ed000046810000ffed0000a5
:104f50002a810000c6ee0000108100008def0000e5
:104f6000f680000055f00000de8000001cf100001b
:104f7000c8800000e4f10000b2800000acf2000044
:104f80009e80000074f300008b8000003cf4000061
:104f90007980000005f5000068800000cdf5000074
:104fa0005980000095f600004b8000005ef700007d
:104fb0003e80000027f8000032800000eff800007b
:104fc00027800000b8f900001e80000081fa000070
:104fd000168000004afb00000f80000013fc000058
:104fe0000a800000dcfc000006800000a5fd000037
:104ff000028000006efe00000180000037ff00000c
:10500000496e000069740000696100006c6900006d
:105010007a610000746900006f6e00002063000078
:105020006f6d0000706c000065740000652e00005c
:105030000d0a0000002500002e330000662000004d
:105040000920000025640000202000000d0a000057
:10505000002500006620000009200000202000003c
:085060000d0a00000000000031
:020000040000fa
:10506800ea470000100000000200000028000000cd
:10507800000000000000000000c40900000000005b
:1050880000000000020800005808000000000000ae
:10509800003000000010000002000000ff7fff0049
:1050a8007fff7f00ff7fff007f01800001800100fc
:1050b800800180000180ff007fff7f00ff7fff00ed
:1050c8007fff7f00018001008001800001800100d6
:1050d80080ff7f00ff7fff007fff7f00ff7f0100d1
:1050e800800180000180010080018000ff7fff00b7
:1050f8007fff7f00ff7fff007f01800001800100ac
:10510800800180000180ff007fff7f00ff7fff009c
:105118007fff7f0001800100800180000180010085
:1051280080ff7f00ff7fff007fff7f00ff7f010080
:10513800800180000180010080018000ff7fff0066
:105148007fff7f00ff7fff007f018000018001005b
:10515800800180000180ff007fff7f00ff7fff004c
:105168007fff7f0001800100800180000180010035
:1051780080ff7f00ff7fff007fff7f00ff7f010030
:10518800800180000180010080018000ff7fff0016
:105198007fff7f00ff7fff007f018000018001000b
:1051a800800180000180ff007fff7f00ff7fff00fc
:1051b8007fff7f00018001008001800001800100e5
:1051c80080ff7f00ff7fff007fff7f00ff7f0100e0
:1051d800800180000180010080018000ff7fff00c6
:1051e8007fff7f00ff7fff007f01800001800100bb
:1051f800800180000180ff007fff7f00ff7fff00ac
:105208007fff7f0001800100800180000180010094
:1052180080ff7f00ff7fff007fff7f00ff7f01008f
:10522800800180000180010080018000ff7fff0075
:105238007fff7f00ff7fff007f018000018001006a
:10524800800180000180ff007fff7f00ff7fff005b
:105258007fff7f0001800100800180000180010044
:1052680080ff7f00ff7fff007fff7f00ff7f01003f
:10527800800180000180010080018000ff7fff0025
:105288007fff7f00ff7fff007f018000018001001a
:10529800800180000180ff007fff7f00ff7fff000b
:1052a8007fff7f00018001008001800001800100f4
:1052b80080ff7f00ff7fff007fff7f00ff7f0100ef
:1052c800800180000180010080018000ff7fff00d5
:1052d8007fff7f00ff7fff007f01800001800100ca
:1052e800800180000180ff007fff7f00ff7fff00bb
:1052f8007fff7f00018001008001800001800100a4
:1053080080ff7f00ff7fff007fff7f00ff7f01009e
:10531800800180000180010080018000ff7fff0084
:105328007fff7f00ff7fff007f0180000180010079
:10533800800180000180ff007fff7f00ff7fff006a
:105348007fff7f00018000000000000000000000d7
:105358000000000000000000000000000000000045
:105368000000000000000000000000000000000035
:105378000000000000000000000000000000000025
:105388000000000000000000000000000000000015
:1065f800000000008047000040000000000000008c
:10660800000800000200000000000000c047000071
:106618002a00000002000000303132003334350017
:1066280036373800394142004344450046003000bf
:10663800313233003435360037383900616263004f
:106648006465660000286e00756c6c002900000007
:1066580060410000a00000000200000001000000ee
:106668000000000000000a00000000000000000018
:10667800006400000000000000000000e8030000c3
:1066880000000000000010002700000000000000cb
:1066980000a08600010000000000000040420f003a
:1066a8000000000000008000969800000000000034
:1066b8000000e100f50500000000000000ca9a0093
:1066c8003b00000000000000e40b54000200000042
:1066d8000000e80076481700000000000010a50040
:1066e800d4e8000000000000a0724e001809000065
:1066f800000040007a10f3005a0000000080c60035
:10670800a47e8d000300000000c16f00f286230004
:10671800000000008a5d7800456301000000640005
:10672800a7b3b600e00d000000e889000423c70005
:106738008a00000000400000600100000200000024
:106748000000000000000000f03f00000000000012
:106758000000240040000000000000000059400034
:1067680000000000000040008f4000000000000012
:106778000088c30040000000000000006af84000e4
:1067880000000000008084002e410000000000008e
:10679800d01263004100000000008400d797410038
:1067a800000000000065cd00cd4100000000200081
:1067b8005fa002004200000000801d00af154400e9
:1067c8000000000040593e0029460000000000007b
:1067d8000000f0007f0000000000000000f07f00d3
:1067e8000000000000000000f07f00000000000032
:1067f8000000f0007f0000000000000000f07f00b3
:106808000000000000000000f07f00000000000011
:106818000000f0007f0000000000000000f07f0092
:106828000000000000000000f07f000000000000f1
:106838000000f0003f00000000a0990099b93f0057
:106848000000000040e17a00843f00000000e00002
:106858004d6250003f00000000e0e200361a3f00a1
:106868000000000080b5f800e43e00000000a00031
:10687800f7c6b0003e00000000a0f200d77a3e0044
:1068880000000000e08e7900453e00000000e000b6
:106898000b2e11003e00000000e0df007cdb3d0015
:1068a8000000000000a19c00c73b000000000000a1
:1068b8004c48b40039000000000020006ca13700eb
:1068c80000000000000000000000000000000000c0
:1068d80000000000000000000000000000000000b0
:1068e80000000000000000000000000000000000a0
:1068f8000000000000000000000000000000000090
:10690800000000000000000000000000000000007f
:106918000000000000000000fa4700000600000028
:1069280000000000004200002600000002000000f5
:10693800fb47000000fb47000900000000020000c0
:10694800fd47000000fd47000e02010000000000a6
:106958000000000000000000060202000000000025
:106968000042000026420000020000000200000071
:08697800010000000000000016
:020000040000fa
:106980000000fa000002eb00041f8800040222004d
:10699000041c880024442000441c8800740020004b
:1069a000541c880064042000141c88000478200013
:1069b000241c880081e3a8000080fa000000060083
:1069c0000000fa000002eb00041f8800040220000f
:1069d000c41c880004442000041d880074002000aa
:1069e000141d880024022000d41c88000478200094
:1069f000e41c88009700a9008700a90099e3a8007b
:106a00000080fa00000006000000fa00de22a90063
:106a1000de02a8000080fa00000006000000fa0074
:106a20008480a9000080fa00004006000000fa00ff
:106a30008700a9000080fa00004006002000fa004c
:106a4000200f9800320f9800430f9800510f9800c4
:106a5000640f9800750f98006022b800048fbe0084
:106a60006022b80024079800350798006022b8001b
:106a700044079800550798000004a8002e0a9000cb
:106a80000402420004024200840278000444200010
:106a900004824200640798002e0a900042a2de00a1
:106aa0000402420084027800044220000482420072
:106ab000740798002e0a900043a2de0004024200f0
:106ac000840278008441200004824200040f980070
:106ad00044412000140f98005e0a9000e10f52001c
:106ae00049003a003e0b9000ce0b9000f4ff2f00bf
:106af0000500200006007800070378008403780072
:106b00000502780007006000040263000500200011
:106b1000c022dd00040020000403be006102b800b2
:106b200004037300858373002607980037079800d5
:106b30003e0a9000ce0a900040aade00cfa2de00fe
:106b40000403be0034002000050020000600780089
:106b500007037800840378000502780007006000ce
:106b60000402630005002000c022dd0004002000b4
:106b70000403be006102b800040373008583730040
:106b800046079800570798003e0a9000ce0a9000ea
:106b900042aade00cfa2de000403be00f47f200084
:106ba00005002000060078008703780004037800c1
:106bb00005027800060360000482630005002000df
:106bc000c022dd0004002000048fbe006132b80046
:106bd0001e1f72001e9772001e027800c522dd0083
:106be0004e02900004824200e80242006e029000d1
:106bf000050a78006e0290000482e800ae02900060
:106c0000050a7800190037003e0b9000ce0b90006b
:106c1000f47f20000500200006007800870378003c
:106c20000403780005027800060360000482630014
:106c300005002000c022dd0004002000048fbe00fb
:106c40006132b8001e1f72001e9772001e0278008b
:106c5000c522dd006e029000050a78006e029000e9
:106c60000482e8008002eb00050a78007e029000b2
:106c7000940278002e0a9000630262004222dd0036
:106c8000f60020000432dd000482ea008482620003
:106c90007e029000050a78002e0a900063026200ce
:106ca0004222dd00ee0a9000842add007e02900080
:106cb00014027800848272007e029000050a780037
:106cc0000e0a9000940278002e0a9000670262007b
:106cd00004024200360020000432dd000482ea0093
:106ce000848262000e0a9000050a78002e0a900045
:106cf0006702620004024200fe0a9000842add005e
:106d00000e0a900014027800848272000e0a90002d
:106d1000050a7800150020002e0a9000042add00e4
:106d2000840278001e0a90001402780084827200a7
:106d30001e0a9000050a78000004a9000080fa00ed
:106d4000000006000a00fa001007980022079800c9
:106d500033079800410798001e0290004522dd008d
:106d6000040f78004e029000e10f520002003a003a
:106d70001e30a00002003700e4ff2f001e0f62004b
:106d80002e029000be029000402ade000500200086
:106d9000040278001e0f72001e02780004007800c2
:106da0000080fa00000006000400fa00000f7800de
:106db000110798000004a80014012000a4208800f6
:106dc0008000eb006011b8001e007800ddff0700b6
:106dd0000002780004228800b4fe2f00842188007d
:106de0000082eb0094218800c42080000400a100f0
:106df0000410a100c42088001e0290000442780004
:106e00006f4262000482fb006f0262000621800074
:106e100005ff2f00850263000482720004218800b0
:106e20000080fa00000006001800fa0070079800c1
:106e3000020f9800130f9800210f9800340f98004c
:106e40006022b800048fbe006022b80024079800ba
:106e5000350798006022b80044079800550798004d
:106e60000004a8007e0290000402420004024200d6
:106e700084027800044320000482420064079800e2
:106e80003e0a9000e10f520053003a000e0b9000b2
:106e90009e0b9000f4ff2f000500200006007800f4
:106ea000070378008403780005027800070060007b
:106eb0000402630005002000c022dd000400200061
:106ec0000403be006102b8000403730085837300ed
:106ed00026079800370798000e0a90009e0a900037
:106ee00040aade00cfa2de000403be003400200072
:106ef000050020000600780007037800840378006e
:106f0000050278000700600004026300050020000d
:106f1000c022dd00040020000403be006102b800ae
:106f20000403730085837300460798005707980091
:106f30000e0a90009e0a900042aade00cfa2de0058
:106f40000403be00f47f2000050020000600780046
:106f500087037800040378000502780006036000c8
:106f60000482630005002000c022dd000400200030
